:020000040800F2
:1000000008070020910100082F1300088312000840
:100010002D130008CB04000825160008000000007E
:100020000000000000000000000000003313000882
:10003000CD0400080000000031130008351300084B
:10004000AB010008AB010008AB010008AB010008E0
:10005000AB010008AB010008AB010008AB010008D0
:10006000AB010008AB010008AB010008AB010008C0
:10007000AB010008AB010008AB010008AB010008B0
:10008000AB010008AB010008AB010008AB010008A0
:10009000AB010008AB010008AB010008AB01000890
:1000A000AB010008AB010008AB010008AB01000880
:1000B000AB010008AB010008AB010008AB01000870
:1000C000AB010008AB010008AB010008AB01000860
:1000D000AB01000819160008AB010008AB010008CD
:1000E000AB010008AB010008AB01000800F002F80A
:1000F00000F03FF80AA090E8000C82448344AAF183
:100100000107DA4501D100F034F8AFF2090EBAE880
:100110000F0013F0010F18BFFB1A43F0010318473B
:1001200098150000B8150000103A24BF78C878C1AF
:10013000FAD8520724BF30C830C144BF04680C60ED
:10014000704700000023002400250026103A28BF35
:1001500078C1FBD8520728BF30C148BF0B60704739
:10016000642900F07D80002070471FB51FBD10B5C9
:1001700010BD00F070F91146FFF7F7FF01F064FAC7
:1001800000F08EF903B4FFF7F2FF03BC00F096F91C
:100190000948804709480047FEE7FEE7FEE7FEE71B
:1001A000FEE7FEE7FEE7FEE7FEE7FEE70448054957
:1001B000054A064B7047000097130008ED00000841
:1001C0000801002008070020080300200803002081
:1001D0000FB41CB5074B06AA7B44694600900598EE
:1001E00000F021F90020694600F030F91CBC5DF8F0
:1001F00014FB0000710200002DE9F0410E46044698
:10020000002020622046E168884730B3252805D0C9
:10021000D4E901219047206A401CF2E7E1682046BA
:1002200000278847050018D0A5F14100192802D8F9
:1002300020354FF400673246294620462760FFF7F5
:100240008FFF40B1012804D0F61D26F007060836BE
:10025000D8E7361DD6E72846DAE7206ABDE8F08100
:100260002DE9F0410646002410687529314616A58F
:1002700010D0AFF30080002802DA404213A507E057
:1002800031688A0701D512A502E0490704D511A5F6
:10029000012401E0AFF3008000210A2206F12407C7
:1002A00009E0B0FBF2FCB0FBF2F302FB1C003030C3
:1002B00078541846491C0028F3D123462A46304674
:1002C000BDE8F04100F051B8000000002D00000032
:1002D0002B0000002000000010B5431C02E010F8C5
:1002E000011B71B18107FAD14FF0013202C88C1A9B
:1002F0008C4314EAC211F9D0C01A0A0603D0C01EFA
:1003000010BDC01A10BD0A0401D0801E10BD090224
:10031000FCD0401E10BD4FF0000200B513469446BD
:100320009646203922BFA0E80C50A0E80C50B1F14D
:100330002001BFF4F7AF090728BFA0E80C5048BF61
:100340000CC05DF804EB890028BF40F8042B08BFFF
:10035000704748BF20F8022B11F0804F18BF00F8FB
:10036000012B70477047704770472DE9F0470D46E5
:1003700099469246044600F124080168880604D58F
:10038000E06921F01001216000E00120A84201DDB8
:10039000471B00E00027A1697A1902EB0900081A3F
:1003A000A0612078C00602D42046AFF3008000266A
:1003B00008E0D4E901211AF806009047206A401CA1
:1003C000761C20624E45F4DB2078C0060AD5204614
:1003D000AFF3008006E0D4E9012130209047206A85
:1003E000401C2062381EA7F10107F4DC07E0D4E9C5
:1003F000012118F805009047206A401C2062281E41
:10040000A5F10105F3DC2046AFF30080207800065B
:1004100002D50220BDE8F0870120FBE701694A1CF4
:1004200002610878704700B58FB0CDE90131002135
:10043000059105497944CDE9031011466846FFF757
:10044000DBFE0FB000BD0000E5FFFFFF0A6802F809
:10045000010B0A607047754600F02CF8AE460500A7
:100460006946534620F00700854618B020B5FFF7CF
:100470009DFEBDE820404FF000064FF000074FF012
:1004800000084FF0000B21F00701AC46ACE8C009B2
:10049000ACE8C009ACE8C009ACE8C0098D467047BB
:1004A00010B50446AFF300802046BDE81040FFF7CA
:1004B00069BE000000487047A800002001491820CC
:1004C000ABBEFEE7260002007047FEE7704772B63B
:1004D000FEE710B590F821100022022905D0042172
:1004E000816380F82020012010BD01680B6823F093
:1004F0000E030B6001680B6823F001030B6090F89A
:100500004030C46B012101FA03F3636080F82110CD
:1005100080F82020104610BD10B590F8211000245E
:10052000022903D00421816301243DE001680A68A7
:1005300022F00E020A6001680A6822F001020A60D5
:100540001A4A0168914201D1012121E0174A14326F
:10055000914201D110211BE0144A2832914201D16D
:10056000891515E0114A3C32914201D189140FE0FE
:100570000E4A5032914202D14FF4803108E00B4ACA
:100580006432914202D14FF4801101E04FF080714A
:10059000064A083A5160012180F82110002180F8B4
:1005A0002010416B01B18847204610BD0800024071
:1005B0002DE9F84FDFF8B8910024A9F1040B234688
:1005C0000F2709F1040AABF1040EC9E00125A5408B
:1005D0002A40AA427DD1674ED1F804C0ACEB060890
:1005E000B44532D014DCBCF1030F3AD009DCBCF1C5
:1005F000000F2AD0BCF1010F1CD0BCF1020F31D189
:100600001DE0BCF1110F17D0BCF1120F2AD119E077
:10061000B8F5881F19D006DCB8F5803F15D0B8F5BD
:10062000801F1FD111E0B8F5001F0ED0B8F5041FD0
:1006300018D10AE0CB6815E0CB681B1D12E0CB682F
:1006400008330FE0CB680C330CE08B682BB1012B27
:100650004FF0080303D0456104E0042302E0056184
:1006600000E00023FF2A01D8064601E000F104065D
:100670004FEA840501D9A5F12005D6F8008007FAD4
:1006800005FC28EA0C0803FA05F548EA0508C6F84F
:1006900000804D68ED0062D5374DAE6946F0010629
:1006A000AE61AD6924F0030605F001050095334DF8
:1006B00006EB050CDCF80850A607360F07FA06F81B
:1006C00025EA0805DFF8B880404503D14FF000085F
:1006D00017E044E0DFF8AC80404502D14FF001085C
:1006E0000FE0DFF8A480404502D14FF0020808E097
:1006F000DFF89880404502D14FF0030801E04FF049
:10070000040808FA06F848EA0508CCF808804D689D
:10071000D9F80060ED024D4601D5164300E096433E
:100720002E604D68DAF80060AD02554601D51643DB
:1007300000E096432E604D68DBF80060AD035D4637
:1007400001D5164300E096432E604D68DEF8006048
:10075000ED03754601D5164300E096432E60641CF8
:100760000D682A46E5407FF431AFBDE8F88F000000
:100770000804014000001110001002400000014078
:1007800000080140000C014000100140001401402D
:10079000C26821EA02030A4043EA0241016170474C
:1007A0000AB1016170470904FBE700000148806855
:1007B0007047000010000020024881680278114450
:1007C0008160704710000020074810B5016841F0B3
:1007D00010010160032000F075F80F2000F006F80A
:1007E00000F024F8002010BD0020024070B50D4D2F
:1007F00004464FF47A712878B1FBF0F00A49096891
:10080000B1FBF0F000F0DCFA48B9102C07D200225E
:100810002146501E00F036F800206C6070BD0120AB
:1008200070BD0000100000201C0000200C4808B51E
:10083000816941F001018161816901F0010100914B
:10084000C16941F08051C161C06900F080500090E1
:100850000448416821F0E06141F00071416008BD49
:100860000010024000000140002809DB00F01F02D8
:10087000012191404009800000F1E020C0F8001102
:1008800070470000F0B40E4B1B680C46C3F3022304
:10089000C3F10705042D00D90425191D072901D22C
:1008A000002300E0DB1E012606FA05F1491E214067
:1008B00099409E40761E16403143F0BC00F0B3BE16
:1008C0000CED00E0064900F0070208684FF6FF0350
:1008D000184040EA0220034A1043086070470000B5
:1008E0000CED00E00000FA052DE9F0470F46050089
:1008F00061D0434E306800F00700B84209D230683A
:1009000020F0070038433060306800F00700B8423C
:1009100051D128683B4C810712D5400703D5606848
:1009200040F4E06060602878000703D5606840F418
:10093000605060606068A96820F0F0000843606063
:100940002878C00728D06868012810D021680228BC
:1009500010D0890700292EDA616821F003010143D4
:100960006160FFF723FF804641F288390DE021687E
:100970008903EFE78901EDE7FFF718FFA0EB080116
:10098000494502D90320BDE8F0876068696800F036
:100990000C00B0EB810FEFD1306800F00700B842D7
:1009A0000BD9306820F0070038433060306800F021
:1009B0000700B84201D00120E5E72878400705D5B7
:1009C0006068E96820F4E060084360602878000708
:1009D00006D56068296920F4605040EAC100606073
:1009E00000F038F86168084AC1F30311515CC8404F
:1009F0000649086006480068FFF7F8FE0020C2E7D5
:100A000000200240001002409E1600081C0000203A
:100A1000140000200448054900684968044AC1F3ED
:100A20000221515CC84070471C00002000100240A9
:100A3000AE1600080448054900684968044AC1F335
:100A4000C221515CC84070471C00002000100240C9
:100A5000AE1600080E4A51680E4801F00C03042B34
:100A600011D0082B0FD10C48C1F38343C903C05CDC
:100A70000AD55168084AC1F34041921E515C054AAB
:100A80005043B0FBF1F07047044948437047000001
:100A90000010024000127A008E16000800093D0086
:100AA0002DE9F84F040070D02078C04DC00749D020
:100AB0006868C0F38100012807D06868C0F381002E
:100AC000022809D16868C00306D52868800339D593
:100AD00060680028E7D035E06068B0F5803F0BD053
:100AE00010B1B0F5A02F11D0286820F48030286014
:100AF000286820F4802002E0286840F480302860D4
:100B0000606890B1FFF752FE06460AE0286840F49C
:100B100080202860F0E700BFFFF748FE801B6428B4
:100B200073D828688003F7D50CE0FFF73FFE064630
:100B300005E000BFFFF73AFE801B6428F0D8286864
:100B40008003F7D420789A4E80074FF001094FF0C8
:100B5000000839D5686810F00C0F07D06868C0F33A
:100B60008100022809D16868C00306D4286880077C
:100B700014D52069012808D110E02069B0B1C6F869
:100B80000090FFF713FE074605E00AE1FFF70EFEAF
:100B9000C01B0228C4D828688007F7D52868616977
:100BA00020F0F80040EAC10028600DE0C6F800809F
:100BB000FFF7FCFD074604E0FFF7F8FDC01B022825
:100BC00023D828688007F7D4207800072CD57948E7
:100BD000A169D9B1C0F80090FFF7E8FD074604E02D
:100BE000FFF7E4FDC01B02280FD8686A8007F7D51D
:100BF00071484FF4FA510068B0FBF1F0009000BF6B
:100C00000098411E0091FAD20EE080E0C0F800800A
:100C1000FFF7CCFD074604E0FFF7C8FDC01B022824
:100C200075D8686A8007F7D42078400760D5E869EE
:100C30000027C00008D4E86940F08050E861E86906
:100C4000012700F0805000905C480168C90513D46A
:100C50000168834641F480710160FFF7A7FD824679
:100C600006E000BFFFF7A2FDA0EB0A0064284ED803
:100C7000DBF80000C005F5D5E06801280AD008B10E
:100C8000052813D0286A20F001002862286A20F085
:100C9000040002E0286A40F001002862E06841F2A6
:100CA000883B98B1FFF782FD82460BE0286A40F04E
:100CB00004002862EEE700BFFFF778FDA0EB0A0111
:100CC00059455AD8286A8007F6D50CE0FFF76EFD23
:100CD000824605E0FFF76AFDA0EB0A0159454CD8B2
:100CE000286A8007F6D41FB1E86920F08050E861D7
:100CF000E06988B36968C1F38101022944D0022800
:100D0000C6F8608004D0FFF751FD044638E034E0B7
:100D1000FFF74CFD074604E0FFF748FDC01B022823
:100D20002BD828688001F7D4206AB0F5803F05D120
:100D30006868A16820F4003008436860D4E90801BD
:100D40000843696821F4741108436860C6F860902C
:100D5000FFF72CFD044606E025E000BFFFF726FD67
:100D6000001B022809D828688001F7D51BE000BFC6
:100D7000FFF71CFD001B022802D90320BDE8F88FF5
:100D800028688001F4D40EE00128F7D06868226A50
:100D900000F48031914204D1616A00F470108842FD
:100DA00001D00120EAE70020E8E70000001002403F
:100DB00000004242800442421C00002000700040BB
:100DC00010B5401EB0F1807F01D3012010BD4FF05F
:100DD000E02460610F21601700F025FC0020A06175
:100DE00007202061002010BD70477047F8B50168EA
:100DF00004460868CA684B6910F00F0F4FF00005F1
:100E000059D003F0010602F49077374365D0C1074B
:100E100005D0D10503D5616C41F001016164410742
:100E200005D5D90703D0616C41F0020161648107E7
:100E300005D5D90703D0616C41F004016164010755
:100E400007D502F02001314303D0616C41F0080165
:100E50006164616C00293AD0800604D5900602D501
:100E6000204600F0C8FA20684069616CC0F3801029
:100E7000090700D460B3204600F096FA2068406964
:100E8000400621D52068143050E8001F21F04001B1
:100E900040E80012002AF5D1E06BA8B16D4941632A
:100EA000E06BFFF739FB002811D0E06B416B01B01C
:100EB000BDE8F040084783060FD593060DD52046C0
:100EC000BDE8F84000F097BA2046FFF78EFFF8BD66
:100ED0002046FFF78AFF6564F8BD266B2023012EAC
:100EE0007CD1C6067AD5D60678D5086848680090C1
:100EF00048694FF00206400640D5E16B086840683B
:100F00000004000CE8D0A28D8242E5D9E085886912
:100F100020282DD020680C3050E8001F21F480716B
:100F200040E80012002AF5D12068143050E8001F74
:100F300021F0010140E80012002AF5D120681430A8
:100F400050E8001F21F0400140E80012002AF5D1CE
:100F500084F84230256320680C3050E8001F21F0EF
:100F6000100140E80012002AF5D1E06BFFF7B1FA5A
:100F70006663A08DE18D401A81B22AE0A08DE18DDB
:100F8000401A81B2E08D0028A6D00029A4D02268A2
:100F90000C3252E8000F20F4907042E80007002F56
:100FA000F5D12068143050E8002F22F0010240E80B
:100FB0000027002FF5D184F84230256320680C30DB
:100FC00050E8002F22F0100240E80023002BF5D15A
:100FD00066632046FFF708FFF8BDFFE705062BD53F
:100FE000150629D594F841002128F5D1A068B0F55F
:100FF000805F01D12069B0B1206A411C2162216863
:1010000000784860E08C401E0004000CE084E3D1CE
:101010002068C16821F08001C1602068C16841F08A
:101020004001C160D8E7206A0088C0F3080048602A
:10103000206A801C2062E5E74006CDD55006CBD55E
:10104000CA68204622F04002CA6084F8413000F0AD
:1010500017F9C1E79913000870B5040004D094F89B
:101060004100002510B106E0012070BD84F8405019
:10107000204600F023F8242084F841002068C1684D
:1010800021F40051C160204600F016FA2068016981
:1010900021F4904101612068416921F02A014161F8
:1010A0002068C16841F40051C1606564202084F863
:1010B000410084F842006563002070BD30B585B002
:1010C0000024009401940294039400681849884213
:1010D0002CD11848816941F480418161816901F412
:1010E00080410491816941F0040181618069124D60
:1010F00000F0040004904FF4007000900220019072
:101100000320039069462846FFF752FA2815CDE9D7
:101110000004694628460294FFF74AFA0022114665
:101120002520FFF7AFFB2520FFF79EFB05B030BD64
:1011300000380140001002400008014090F84230A1
:10114000202B01D00220704721B11AB10023036384
:1011500000F00EBA012070471CB5006813498842A0
:1011600022D141141248FFF713FB12480168816035
:101170004168C1600830B0F90620B0F90410CDE92B
:101180000012B0F90230B0F900200BA11248FFF7AD
:101190001FF8114800F06AFA02B00822BDE81040BA
:1011A00004490E48FFF7CABF1CBD000000380140CB
:1011B00000100140000000204C783A256420204CAB
:1011C000793A2564202052783A2564202052793AD1
:1011D0002564202000000000200000206000002086
:1011E0002DE9F843044690F84100984616460D460E
:1011F000202802D00220BDE8F88385B17EB100200E
:101200006064212084F84100FFF7D0FAA68481466B
:10121000E684A0682027B0F5805F02D003E00120BB
:10122000E9E7206910B12E4600250EE000260CE00B
:101230008021204600F0B7F9A8B9C6B116F8010B15
:1012400021684860E08C401EE084E08C4B464FF003
:101250000002CDF800800028EAD14FF0400120467E
:1012600000F0A1F940B184F841700320C3E735F8DC
:10127000020BC0F30800E3E784F841700020BAE7EE
:101280007047FEE770B586B00024184800940194BA
:1012900002940394816941F010018161816901F038
:1012A00010010491816941F020018161816901F09F
:1012B00020010491816941F00401816180690C4E33
:1012C00000F004004FF400550490002229463046F7
:1012D000FFF766FA01200095CDE901040220039092
:1012E00069463046FFF764F906B070BD0010024051
:1012F000001001400C4810B50A4901604FF4E1317B
:101300004160002181600C22C160C0E9041281614A
:10131000C161FFF7A1FE002803D0BDE81040FFF730
:10132000D6B810BD0038014060000020FEE7FEE79F
:1013300070477047FFF740BA30B58FB02821684634
:10134000FEF7E9FF14210AA8FEF7E5FF01210804D2
:10135000CDE900100024029402250491CDE9075044
:101360004FF4E01009906846FFF79AFB08B172B697
:10137000FEE70F20CDE90A054FF48060CDE90C406F
:1013800002210AA80E94FFF7AFFA002801D072B626
:10139000FEE70FB030BD704710B5406A0021C1852F
:1013A000C184FFF722FD10BD01680C3151E8002F08
:1013B00022F4907241E80023002BF5D1016814312A
:1013C00051E8002F22F0010241E80023002BF5D163
:1013D000016B012909D101680C3151E8002F22F07D
:1013E000100241E80023002BF5D1202180F84210A3
:1013F00000210163704708B590F84210222901D0FE
:10140000022008BD82684FF480539A4201D10169DD
:1014100021B1816A9A421BD04AB10AE00268816A0E
:101420005268C2F308020A80816A891C08E00269D6
:1014300072B10268526802F07F020A70816A491C28
:101440008162C18D491E0904090CC18503D01BE0CE
:1014500002685268F1E70168CA6822F02002CA6097
:101460000168CA6822F48072CA6001684A6922F081
:1014700001024A61202180F8421000214163026B81
:10148000012A03D0FFF768FE002008BD0163016850
:101490000C3151E8002F22F0100241E80023002B0C
:1014A000F5D101680A68D20602D50A684968009138
:1014B000818DFFF799FCE7E770B504460068016984
:1014C000E26821F44051114301612169A068084399
:1014D000616908432168CA6841F20C639A43024378
:1014E000CA6020684169A26921F4407111434161D9
:1014F0001E492068884202D1FFF79CFA01E0FFF7FD
:1015000089FA00EBC00101EB0012606864218000E1
:10151000B2FBF0F3B3FBF1F36FF018067343B2FBC9
:10152000F0F5B2FBF0F605EB8305322303EB05156E
:10153000B5FBF1F5B6FBF1F605F0F00505EB061588
:10154000B2FBF0F6B2FBF0F0B0FBF1F06FF0180276
:10155000504306EB800003EB0010B0FBF1F0216874
:1015600000F00F002844886070BD00000038014082
:1015700081628285C28500214164222180F8421067
:10158000016921B10168CA6842F48072CA600168C9
:101590004A6942F001024A610068C16841F02001D5
:1015A000C160002070472DE9F843984617460D4664
:1015B0000446089E24E0701C22D0FFF7F7F8A0EB49
:1015C0000800B0421AD8CEB12068C168490717D5C3
:1015D000802D15D0402D13D00168C94309070FD4C1
:1015E00001680025406800902046FFF7DDFE0820D6
:1015F000606484F840500120BDE8F8830320FBE7D5
:101600002068006835EA000004D00020B842D2D03B
:101610000020F1E70120F9E70148FFF7E7BB0000F0
:1016200060000020FEE70907090E002804DB00F136
:10163000E02080F80014704700F00F0000F1E02077
:1016400080F8141D70470000FFF7BEF8FFF774FE26
:10165000FFF718FEFFF74EFE082202490248FFF787
:101660006DFDFEE7000000206000002010B504467C
:10167000FEF732FE214682B2BDE810404FF0FF3344
:101680000148FFF7ADBD0000600000200102020329
:101690000405060708090A0B0C0D0E0F10100000B8
:1016A0000000000000000102030406070809000012
:1016B0000000010203040000D8160008000000200A
:1016C0002000000028010008F81600082000002073
:1016D000E8060000440100080000000000000000CF
:1016E00000000000000000000100000010000000E9
:0816F0000000000000127A0066
:04000005080000ED02
:00000001FF
