:020000040800F2
:10000000A807002005010008BB25000851230008AF
:10001000B925000875070008E53300080000000056
:10002000000000000000000000000000C1260008E1
:10003000BB07000800000000BD2500089130000843
:100040001F0100081F0100081F0100081F01000810
:100050001F0100081F0100081F0100081F01000800
:100060001F0100081F0100081F0100087907000890
:100070001F0100081F010008850700081F01000874
:100080001F0100081F0100081F0100081F010008D0
:100090001F0100081F0100081F0100081F010008C0
:1000A0001F0100081F0100081F0100081F010008B0
:1000B000113100081F0100081F0100081F0100087E
:1000C0001F0100081F0100081F0100081F01000890
:1000D0001F010008D93300081F0100081F01000894
:1000E0001F0100081F0100081F010008DFF810D0E1
:1000F00000F08CFA00480047BD340008AFF30080E0
:10010000A80700200648804706480047FEE7FEE7AC
:10011000FEE7FEE7FEE7FEE7FEE7FEE7FEE7FEE7B7
:100120000D310008ED000008202A04DB203A21FAF6
:1001300002F00021704721FA02F3D040C2F1200200
:10014000914008431946704740EA01039B0703D0DA
:1001500009E008C9121F08C0042AFAD203E011F806
:10016000013B00F8013B521EF9D27047D2B201E0C8
:1001700000F8012B491EFBD270470022F6E710B5AC
:1001800013460A4604461946FFF7F0FF204610BD05
:100190002DE9FE4F804681EA0300C00F0C46009017
:1001A00021F0004123F00045B8EB0200A94105D23F
:1001B0004046214690461C460B46024623F000402E
:1001C000104347D0270DC7F30A00C3F30A5102902A
:1001D000401A019040286BDAC3F3130040F4801BEF
:1001E0000098924620B10023D2EB030A63EB0B0B7D
:1001F00001985946C0F14002504600F088F9064681
:100200000D4650465946019A00F090F910EB08004F
:100210006141002487EA115284EAE7731A4340D00F
:10022000009A62B3019A012A4FEA075215DC001BBB
:1002300061EB02014FF0004202EA0752CDE90042B1
:10024000001C41F5801132462B4600F090F903B0B6
:10025000BDE8F08F40462146F9E7001B61EB020143
:10026000001C41F5801300185B412018A2F500170F
:1002700047EB030140EAD570B6196D4111E06D08F6
:100280004FEA360645EAC0754FEA0752001B61EB9C
:100290000201001C41F5801149084FEA30000019A5
:1002A000514132462B4603B0BDE8F04F00F050B943
:1002B0000098012240000023D0EB020263EBE073C0
:1002C000009821464FEAE074B8EB000061EB0401AE
:1002D000E9E783F000435BE781F0004158E72DE94F
:1002E000FE4F81EA030404F0004421F00041009431
:1002F0004FF0000B23F0004350EA01045ED052EAB5
:1003000003045BD0C3F30A54C1F30A552C44A4F28E
:10031000F3340194A0FB0254C1F3130141F48011A2
:10032000C3F3130343F4801301FB024400FB034EA9
:10033000840A970A44EA815447EA8357A4FB076872
:1003400002958D0A05FB07854FEA932C04FB0C549C
:100350002705029D4FEA065847EA1637B5EB080510
:100360006EEB070C870E920E47EA811742EA831262
:10037000A7FB0201B6EB0B0164EB00042B0D43EA73
:100380000C335E1844EB1C50DA465146E7FB020181
:10039000C5F313044FEA0B3343EA14534FEA043214
:1003A000019C43EA0603A4F10C040294009CCDE9ED
:1003B00000B400F0DCF803B0BDE8F08F0020014687
:1003C000F9E72DE9F04D81EA030404F0004B21F038
:1003D000004514464FF0000A23F0004150EA0502A0
:1003E00020D054EA01021DD0C5F30A570246C5F3D6
:1003F0001303C1F31300C1F30A5640F4801543F40C
:100400008013A7EB0608101BD64608F2FD3873EBE5
:10041000050002D308F1010801E092185B41B8F130
:10042000000F03DA00200146BDE8F08D00204FF4F4
:100430008011064684460EE0171B73EB050705D3B3
:10044000121B63EB050306434CEA010C49084FEA13
:10045000300092185B4150EA0107EDD152EA0300E7
:1004600012D082EA040083EA0501084305D0101B7C
:10047000AB4106D20122002306E000224FF00043E8
:1004800002E06FF0010253101AEB06004CEB08512A
:1004900010EB0A0041EB0B01BDE8F04D00F058B83D
:1004A0000EB5C10F80EAE0700844CA07002140F28F
:1004B00033438DE80E000A460B4600F058F803B0AF
:1004C00000BD0EB540F2334102910021CDE900118B
:1004D0000A460B4600F04BF803B000BDC1F30A52C8
:1004E00010B5C1F3130140F2FF3341F480119A4279
:1004F00001DA002010BD40F233439A42A2F23342A7
:1005000003DC5242FFF710FE10BD904010BD202AC0
:1005100004DB203A00FA02F1002070479140C2F15A
:10052000200320FA03F3194390407047202A06DB8A
:10053000CB17203A41FA02F043EAE07306E041FAB1
:1005400002F3D040C2F1200291400843194670479F
:1005500010B5141E73F1000408DA401C41F10001CB
:1005600092185B411A4301D120F0010010BD2DE922
:10057000F04D92469B4611B1B1FA81F202E0B0FA19
:1005800080F220329046FFF7C2FF04460F4640EA51
:100590000A0041EA0B0153465A46084313D011465C
:1005A00053EA010019D0C8F140025046FFF7BCFDE4
:1005B00005460E46504659464246FFF7A8FF0843F7
:1005C00005D0012004E020463946BDE8F08D00202A
:1005D000054346EAE0762C4337430A986305E40A6C
:1005E000A0EB08000022FD0A44EA47540A3002D575
:1005F00000200146E9E7010510196941DDE90845D8
:1006000000196941BDE8F04DA2E70000064C074D16
:1006100006E0E06840F0010394E8070098471034D2
:10062000AC42F6D3FFF766FD80380008A03800081A
:1006300070B5044600688168C943C90717D181684D
:1006400021F00101816000F08DFD05460AE000BF48
:1006500000F088FD401B022804D920688068C04350
:10066000C00706D020688068C043C007F0D00020D3
:1006700070BDA06A40F01000A062E06A40F0010086
:10068000E062012070BD10B50146406A826A12F036
:10069000500F05D0006A026BBDE8104008461047B5
:1006A000816A41F40071816201688968C1F3424145
:1006B00007290CD1017B51B9816A21F480718162D3
:1006C000816AC90403D4816A41F00101816200F0AA
:1006D00061F910BD10B5406A816A41F04001816244
:1006E000C16A41F00401C16200F056F910BD10B5B5
:1006F000406A00F050F910BDF8B500260446009697
:1007000000688168C943C9072DD0816841F00101A3
:100710008160164816490068B0FBF1F000E0401E09
:1007200000900028FBD100F01DFD054616E000BF3B
:1007300000F018FD401B022810D920688068C043D3
:10074000C0070BD0A06A40F01000A062E06A40F041
:100750000100E06284F824600120F8BD2068806810
:10076000C043C007E4D10020F8BD000070000020A5
:1007700040420F00FEE70000014800F0DBBA000035
:1007800034020020014800F0D5BA000060030020C8
:1007900030B590F840500124AC40C56B6C600468E3
:1007A00063604368102B036803D099600068C260DF
:1007B00030BD9A600068C16030BD704772B6FEE718
:1007C000F8B500250446009590F8240001280BD0C8
:1007D000012084F824002046FFF72AFF2046FFF777
:1007E0008BFF060002D050E00220F8BDA06A20F482
:1007F000885040F00200A062022000F051FD25491F
:100800000968B1FBF0F0400000E0401E00900028B5
:10081000FBD12068816841F00801816000F0A2FCF2
:10082000074608E000F09EFCC01B0A2803D9206898
:100830008068000715D4206880680007F2D420681B
:10084000816841F00401816000F08CFC074612E0F1
:1008500000F088FCC01B0A280DD92068806840077A
:1008600009D5A06A20F0020040F01000A06284F8D0
:1008700024500120F8BD206880684007E8D4A06AB1
:1008800020F0020040F00100A06284F824503046BD
:10089000F8BD000070000020F8B50024009490F826
:1008A00024202546012A12D0012280F824204A68FB
:1008B0001F23072A0DD20668776B521E02EB8202B5
:1008C00093409F430B6893401F43776319E00220D6
:1008D000F8BD06680D2A0AD2376BD21F02EB8202DE
:1008E00093409F430B6893401F43376309E0F76AC7
:1008F0000D3A02EB820293409F430B6893401F43E3
:10090000F7620A68072306680A2A0AD3F7680A3AD0
:1009100002EB420293409F438B6893401F43F76072
:1009200008E0376902EB420293409F438B68934093
:100930001F4337610A68102A01D0112A20D1124BB7
:1009400002689A4217D193681B0219D4936843F442
:10095000000393600968102912D10C490C4A0968F8
:10096000B1FBF2F101EB8101490000E0491E009169
:100970000029FBD104E0816A41F020018162012459
:1009800080F824502046F8BD00240140700000206B
:1009900040420F0070477047704700002DE9F0415A
:1009A0004FF0000704003D467ED0A06A002628B91B
:1009B000E66284F82460204600F07EF82046FFF7C7
:1009C00037FEA16AC90600D420B1A06A40F0100029
:1009D000A06269E0A16A21F4885141F00201A1629C
:1009E0006268E169237B0A4347EA43010A43A1683D
:1009F0004FF48077B94209D0012907D05FF0000198
:100A000094F814C0BCF1010F02D00AE03946F7E7B0
:100A1000F3B1A36A43F02003A362E36A43F0010346
:100A2000E3622368D3F804C02CF4694C4CEA010C4F
:100A3000C3F804C021688B68DFF870C003EA0C03B8
:100A400013438B60A168B9420BD0012909D00CE097
:100A5000DFF85CC0A3690CEB43330B4343F4006144
:100A6000DFE7218A0D05A5F580152168CB6A23F4FF
:100A700070032B43CB62216889680E4B1940914269
:100A800008D1E662A16A21F0020141F00101A162F0
:100A9000BDE8F081A06A20F0020040F01000A062E2
:100AA000E06A40F00100E0620120F1E7FDF7E1FFBC
:100AB00000E0FFFFFE0E1FFF70B586B00026054662
:100AC000009601960296039600681A4988422FD133
:100AD0001949886940F400708861886900F40070E1
:100AE0000490886940F0040088618869694600F0D4
:100AF000040004900F200090032001900F4800F0A4
:100B00003BFA104C0E48C4E900068020C4E902609C
:100B100040002061800060612020A0610002E0614F
:100B2000204600F0B1F908B1FFF748FE2C6265627B
:100B300006B070BD002401400010024000080140D2
:100B400008000240340200202DE9F047894604469F
:100B50003B4900683B4F0E1D9046884201D0B84289
:100B600007D1306810F4702F03D001252846BDE866
:100B7000F08794F8240001280CD0012084F8240088
:100B80002046FFF7B9FD05004FF0000004D084F8BF
:100B90002400EBE70220EAE7A16A40F601629143F4
:100BA00041F48071A1622168B94218D1326812F40F
:100BB000702F14D0A16A41F48011A16231684905F7
:100BC00005D5A16A21F4005141F48051A162A16AC6
:100BD000C9040AD5E16A21F00601E16206E0A26AD1
:100BE00022F48012A2624968E9E7E06284F82400F6
:100BF000216A15488862216A1448C862216A14482B
:100C0000086321686FF0020008602068816841F481
:100C100080718160216843464A464C31206A00F069
:100C200061F920688168C1F342410729816803D0D6
:100C300041F48011816099E741F4A001FAE70000D6
:100C4000002401400028014087060008EF06000844
:100C5000D506000810B590F821100022022905D011
:100C60000421816380F82020012010BD01680B68F9
:100C700023F00E030B6001680B6823F001030B6087
:100C800090F84030C46B012101FA03F3636080F8EF
:100C9000211080F82020104610BD000010B590F8FB
:100CA00021100024022903D00421816301243DE0A6
:100CB00001680A6822F00E020A6001680A6822F0E0
:100CC00001020A601A4A0168914201D1012121E022
:100CD000174A1432914201D110211BE0144A2832E4
:100CE000914201D1891515E0114A3C32914201D15E
:100CF00089140FE00E4A5032914202D14FF48031F4
:100D000008E00B4A6432914202D14FF4801101E0B5
:100D10004FF08071064A083A5160012180F8211095
:100D2000002180F82010416B01B18847204610BD9A
:100D3000080002402DE9F05FC16B0C6801680B6888
:100D4000D0F840C0042202FA0CF2494DDFF824A189
:100D5000494E4A4FDFF828B1DFF828E122422CD073
:100D60005A072AD50A68920603D40A6822F00402B8
:100D70000A600168A94201D1042219E0514501D15C
:100D8000402215E0B14202D14FF4806210E0B94236
:100D900002D14FF480420BE0594502D14FF480223A
:100DA00006E0714502D14FF4800201E04FF080620D
:100DB0002F4908394A60C16A3BE04FF0020808FA3F
:100DC0000CF818EA040F4FF000094FF0010235D07B
:100DD0005FEA837832D50B689B0605D40B6823F055
:100DE0000A030B6080F821200168A94201D1022288
:100DF00019E0514501D1202215E0B14202D14FF452
:100E0000007210E0B94202D14FF400520BE0594594
:100E100002D14FF4003206E0714502D14FF40012C6
:100E200001E04FF00072124908394A6080F82090C2
:100E3000816A00291AD0BDE8F05F0847082505FA45
:100E40000CF5254212D01B0710D50B6823F00E03BA
:100E50000B6090F84010C36B02FA01F15960826395
:100E600080F8212080F82090016BE2E7BDE8F09F38
:100E7000080002401C0002403000024044000240D2
:100E8000580002406C00024030B528B308C813492E
:100E900014221944B1FBF2F18900C1631049816346
:100EA000022141771A6843F6F0718A43D0E90014B1
:100EB0002143D0E902452C4321430469214344697D
:100EC00021438469214311431960002141630122B8
:100ED00042770177084630BD012030BDF8FFFDBFE5
:100EE0000000024070B5044690F82000002501285B
:100EF0000CD0012084F8200094F821600020012EFD
:100F000006D084F820000225284670BD022070BD5E
:100F1000022684F82160A0632068066826F0010696
:100F200006602046FFF734FCE06A0028206801686C
:100F300002D041F00E0106E021F0040101602068BA
:100F4000016841F00A0101602068016841F0010177
:100F50000160D9E770B5044600F004F90546601C4D
:100F600002D004480078044400F0FCF8401BA04282
:100F7000FAD370BD640000202DE9F84FDFF8B89176
:100F80000024A9F1040B23460F2709F1040AABF151
:100F9000040EC9E00125A5402A40AA427DD1674E32
:100FA000D1F804C0ACEB0608B44532D014DCBCF177
:100FB000030F3AD009DCBCF1000F2AD0BCF1010FBD
:100FC0001CD0BCF1020F31D11DE0BCF1110F17D0C4
:100FD000BCF1120F2AD119E0B8F5881F19D006DC30
:100FE000B8F5803F15D0B8F5801F1FD111E0B8F5D6
:100FF000001F0ED0B8F5041F18D10AE0CB6815E029
:10100000CB681B1D12E0CB6808330FE0CB680C33B4
:101010000CE08B682BB1012B4FF0080303D0456126
:1010200004E0042302E0056100E00023FF2A01D868
:10103000064601E000F104064FEA840501D9A5F156
:101040002005D6F8008007FA05FC28EA0C0803FA08
:1010500005F548EA0508C6F800804D68ED0062D540
:10106000374DAE6946F00106AE61AD6924F0030666
:1010700005F001050095334D06EB050CDCF8085032
:10108000A607360F07FA06F825EA0805DFF8B88044
:10109000404503D14FF0000817E044E0DFF8AC8092
:1010A000404502D14FF001080FE0DFF8A480404531
:1010B00002D14FF0020808E0DFF89880404502D1E5
:1010C0004FF0030801E04FF0040808FA06F848EA78
:1010D0000508CCF808804D68D9F80060ED024D464F
:1010E00001D5164300E096432E604D68DAF80060A3
:1010F000AD02554601D5164300E096432E604D687B
:10110000DBF80060AD035D4601D5164300E0964371
:101110002E604D68DEF80060ED03754601D516437C
:1011200000E096432E60641C0D682A46E5407FF47B
:1011300031AFBDE8F88F0000080401400000111035
:10114000001002400000014000080140000C014076
:1011500000100140001401400AB101617047090408
:10116000FBE7000001488068704700006400002031
:101170000248816802781144816070476400002051
:10118000074810B5016841F010010160032000F02C
:1011900075F80F2000F006F800F024F8002010BDCC
:1011A0000020024070B50D4D04464FF47A71287846
:1011B000B1FBF0F00A490968B1FBF0F000F02EFD38
:1011C00048B9102C07D200222146501E00F036F8F4
:1011D00000206C6070BD012070BD00006400002024
:1011E000700000200C4808B5816941F0010181615F
:1011F000816901F001010091C16941F08051C16133
:10120000C06900F0805000900448416821F0E0611E
:1012100041F00071416008BD001002400000014033
:10122000002809DB00F01F020121914040098000E5
:1012300000F1E020C0F8001170470000F0B40E4B40
:101240001B680C46C3F30223C3F10705042D00D924
:101250000425191D072901D2002300E0DB1E012609
:1012600006FA05F1491E214099409E40761E16401F
:101270003143F0BC02F0B7B80CED00E0064900F0D5
:10128000070208684FF6FF03184040EA0220034AAD
:1012900010430860704700000CED00E00000FA0504
:1012A00010B501460020234C012922D0022939D053
:1012B00010291DD161682268D20119D51E48C1F3D9
:1012C0008342C903805C0AD561681B4AC1F340416F
:1012D000921E515C194AB2FBF1F1484301E01849F2
:1012E00048436168490203D440000321B0FBF1F098
:1012F00010BD226AC2F30121012903D1920701D551
:10130000C80310BD022905D1626A920702D549F6C9
:10131000404010BD0329FCD121688903F9D54FF263
:10132000244010BD00F02AF96168C1F38131491CE5
:101330004900DBE7001002405838000800127A002C
:1013400000093D002DE9F84305460078354CC007FB
:1013500054D0E0690026C00008D4E06940F0805015
:10136000E061E069012600F0805000902E4801689D
:10137000C90512D40168804641F480710160FFF70D
:10138000F1FE074605E000BFFFF7ECFEC01B642836
:1013900023D8D8F80000C005F6D5206A10F44070B4
:1013A00021D0A98801F4407181421CD0206A1F49D4
:1013B000012220F440700A6000220A602062C00707
:1013C00011D0FFF7CFFE074641F2883808E000BF92
:1013D000FFF7C8FEC11B414502D90320BDE8F883D1
:1013E000206A8007F4D5206A696820F440700843B9
:1013F00020621EB1E06920F08050E061287880070B
:1014000005D56068A96820F44040084360602878EA
:10141000C00605D56068E96820F480000843606074
:101420000020DBE700100240007000404004424210
:101430002DE9F0470F46050061D0434E306800F0BB
:101440000700B84209D2306820F007003843306006
:10145000306800F00700B84251D128683B4C810742
:1014600012D5400703D5606840F4E06060602878DA
:10147000000703D5606840F4605060606068A96848
:1014800020F0F000084360602878C00728D0686822
:10149000012810D02168022810D0890700292EDAEF
:1014A000616821F0030101436160FFF75BFE804644
:1014B00041F288390DE021688903EFE78901EDE702
:1014C000FFF750FEA0EB0801494502D90320BDE813
:1014D000F0876068696800F00C00B0EB810FEFD115
:1014E000306800F00700B8420BD9306820F00700E0
:1014F00038433060306800F00700B84201D0012066
:10150000E5E72878400705D56068E96820F4E060E1
:10151000084360602878000706D56068296920F4D0
:10152000605040EAC100606000F038F86168084A25
:10153000C1F30311515CC8400649086006480068C1
:10154000FFF730FE0020C2E70020024000100240FA
:101550006838000870000020680000200448054931
:1015600000684968044AC1F30221515CC8407047D1
:101570007000002000100240783800080448054937
:1015800000684968044AC1F3C221515CC8407047F1
:101590007000002000100240783800080E4A5168A0
:1015A0000E4801F00C03042B11D0082B0FD10C486E
:1015B000C1F38343C903C05C0AD55168084AC1F32B
:1015C0004041921E515C054A5043B0FBF1F0704718
:1015D00004494843704700000010024000127A009E
:1015E0004638000800093D002DE9F84F040070D08E
:1015F0002078C04DC00749D06868C0F38100012839
:1016000007D06868C0F38100022809D16868C00368
:1016100006D52868800339D560680028E7D035E012
:101620006068B0F5803F0BD010B1B0F5A02F11D09D
:10163000286820F480302860286820F4802002E0A8
:10164000286840F480302860606890B1FFF78AFD18
:1016500006460AE0286840F480202860F0E700BFD2
:10166000FFF780FD801B642873D828688003F7D5B6
:101670000CE0FFF777FD064605E000BFFFF772FDBF
:10168000801B6428F0D828688003F7D420789A4E0D
:1016900080074FF001094FF0000839D5686810F055
:1016A0000C0F07D06868C0F38100022809D1686870
:1016B000C00306D42868800714D52069012808D102
:1016C00010E02069B0B1C6F80090FFF74BFD074667
:1016D00005E00AE1FFF746FDC01B0228C4D82868D0
:1016E0008007F7D52868616920F0F80040EAC1005A
:1016F00028600DE0C6F80080FFF734FD074604E0DF
:10170000FFF730FDC01B022823D828688007F7D4D4
:10171000207800072CD57948A169D9B1C0F800908C
:10172000FFF720FD074604E0FFF71CFDC01B022861
:101730000FD8686A8007F7D571484FF4FA510068EE
:10174000B0FBF1F0009000BF0098411E0091FAD26A
:101750000EE080E0C0F80080FFF704FD074604E0DB
:10176000FFF700FDC01B022875D8686A8007F7D410
:101770002078400760D5E8690027C00008D4E869F0
:1017800040F08050E861E869012700F08050009047
:101790005C480168C90513D40168834641F480712F
:1017A0000160FFF7DFFC824606E000BFFFF7DAFCCE
:1017B000A0EB0A0064284ED8DBF80000C005F5D580
:1017C000E06801280AD008B1052813D0286A20F063
:1017D00001002862286A20F0040002E0286A40F034
:1017E00001002862E06841F2883B98B1FFF7BAFC3B
:1017F00082460BE0286A40F004002862EEE700BF52
:10180000FFF7B0FCA0EB0A0159455AD8286A8007B7
:10181000F6D50CE0FFF7A6FC824605E0FFF7A2FC38
:10182000A0EB0A0159454CD8286A8007F6D41FB1AD
:10183000E86920F08050E861E06988B36968C1F325
:101840008101022944D00228C6F8608004D0FFF745
:1018500089FC044638E034E0FFF784FC074604E0E6
:10186000FFF780FCC01B02282BD828688001F7D422
:10187000206AB0F5803F05D16868A16820F4003087
:1018800008436860D4E908010843696821F47411C9
:1018900008436860C6F86090FFF764FC044606E001
:1018A00025E000BFFFF75EFC001B022809D828686E
:1018B0008001F7D51BE000BFFFF754FC001B022896
:1018C00002D90320BDE8F88F28688001F4D40EE027
:1018D0000128F7D06868226A00F48031914204D16F
:1018E000616A00F47010884201D00120EAE700200C
:1018F000E8E700000010024000004242800442423B
:10190000700000200070004070B5040009D0606ACB
:10191000002540B125616561A56294F8510040B190
:101920000CE0012070BD6068B0F5827FF4D0E56105
:10193000F2E784F85050204600F040F8022084F886
:1019400051002068016821F040010160A0882189D0
:1019500000F4827001F404410843A18901F400619C
:101960000843217C01F002010843217D01F00101BF
:101970000843218B01F400710843217F01F03801F5
:10198000084394F8201001F080010843218D01F4F0
:101990000051084321680860A069042101EA104051
:1019A000216848602068C16921F40061C1616565F2
:1019B000012084F85100002070BD000030B585B0D2
:1019C000002400940194029403940068144988420E
:1019D00023D11448816941F480518161816901F406
:1019E00080510491816941F00401816180690E4D4B
:1019F00000F004000490A020009002200190032039
:101A0000039069462846FFF7B7FA4020CDE9000465
:101A1000694628460294FFF7AFFA05B030BD0000D2
:101A20000030014000100240000801402DE9FF4F46
:101A300081B01D46934604464FF001090E9EFFF704
:101A400091FB074694F851006168012806D0B1F572
:101A5000827F3CD1A168C9BB042838D102980028F4
:101A600071D0BBF1000FFBD0002DF9D094F85000DD
:101A700001282CD04FF0010A84F850A094F85100AE
:101A8000042802D0052084F851004FF00008C4F863
:101A90005480C4F838B0E587A58702992163E586AC
:101AA000A586C4F84080C4F84480206801684906CF
:101AB00003D4016841F040010160E068B0F5006FB7
:101AC000606808D0F0B3012D49D081E0FFE7022023
:101AD00005B0BDE8F08F08B1012D39D1206B216828
:101AE0000088C860206B801C2063E08E401EE0866A
:101AF0002EE02068816889070FD5E18E69B1B9F1C0
:101B0000010F0AD1216B0988C160206B801C206302
:101B1000E08E401EE0864FF0000920688168C9070A
:101B20000CD0E18F51B1C068A16B0880A06B801C04
:101B3000A063E08F401EE0874FF00109FFF712FB22
:101B4000C01B01E00BE067E0B04201D3701C50D134
:101B5000E08E0028CDD1E08F0028CAD13EE0206B76
:101B6000216800780873206B401C2063E08E401EC3
:101B7000E0862DE02068816889070FD5E18E69B184
:101B8000B9F1010F0AD1216B09780173206B401C58
:101B90002063E08E401EE0864FF0000920688168D7
:101BA000C9070CD0E18F51B1C068A16B0870A06B60
:101BB000401CA063E08F401EE0874FF00109FFF753
:101BC000D1FAC01BB04202D3701C01D011E086B123
:101BD000E08E0028CED1E08F0028CBD13A463146A6
:101BE000204600F0F7FC50B12020606584F850805A
:101BF00012E084F851A084F85080032068E7A068C0
:101C000018B92068C1688068009084F851A084F8F1
:101C10005080606D0028F1D0012059E710B5401EBA
:101C2000B0F1807F01D3012010BD4FF0E02460614E
:101C30000F21601701F0D7FB0020A0610720206171
:101C4000002010BD7047704770B590F83C20012A05
:101C500026D0012480F83C40022280F83D20036811
:101C60005A689D6822F070060A6832435A600D4B2C
:101C700002689A4208D0B2F1804F05D00A4B9A42CE
:101C800002D00A4B9A4204D1496825F080031943D7
:101C9000916080F83D40002180F83C10084670BDFE
:101CA000022070BD002C01400004004000080040EC
:101CB00010B5040003D094F83D0010B107E00120F6
:101CC00010BD002084F83C00204600F01FF80220E0
:101CD00084F83D00211D206801F020FA012084F8DD
:101CE000460084F83E0084F83F0084F8400084F801
:101CF000410084F8420084F8430084F8440084F8EA
:101D0000450084F83D00002010BD000008B50068C3
:101D1000B0F1804F12D10A48C16941F00101C1619F
:101D2000C069002200F00100009011461C20FFF75E
:101D300085FABDE808401C20FFF772BA08BD000014
:101D40000010024090F83D10012901D00120704799
:101D5000022180F83D100168CA6842F00102CA60A1
:101D600000680B49884208D0B0F1804F05D009497E
:101D7000884202D00849884204D1816801F00701F5
:101D8000062903D0016841F001010160002070477D
:101D9000002C0140000400400008004070B50446DB
:101DA00090F83C000025012817D0012684F83C60FB
:101DB000022084F83D002068826822F0770222F435
:101DC0007F4282600868502838D00DDC20284FD030
:101DD00005DC90B3102811D14AE0022070BD3028F4
:101DE00046D040280AD13BE060282FD070280DD083
:101DF000B0F5805F03D0B0F5005F12D0012584F804
:101E00003D60002084F83C00284670BDCB68D1E9D5
:101E10000121206801F0BEF92068816841F0770156
:101E200009E0CB68D1E90121206801F0B3F920680D
:101E3000816841F480418160E1E719E0CA6849683E
:101E4000206801F0B9F95021206806E0CA684968A5
:101E5000206801F0C2F96021206801F0A5F9CEE701
:101E6000CA684968206801F0A7F940212068F4E7B2
:101E7000226801461046F0E770472DE9F04104461C
:101E80000068C66805694FF00007A90713D5B107B8
:101E900011D5F91E01610120207720688069800733
:101EA000204602D0FFF7E8FF04E000F07EF820466D
:101EB00000F07CF82777680716D5700714D52168DD
:101EC0006FF004000861022020772068806910F418
:101ED000407F204602D0FFF7CFFF04E000F065F816
:101EE000204600F063F82777280715D5300713D56B
:101EF00021686FF008000861042020772068C0691D
:101F00008007204602D0FFF7B7FF04E000F04DF84D
:101F1000204600F04BF82777E80616D5F00614D5D2
:101F200021686FF010000861082020772068C069E0
:101F300010F4407F204602D0FFF79EFF04E000F03F
:101F400034F8204600F032F82777E80708D0F00789
:101F500006D021686FF001000861204600F028F8E3
:101F6000280608D5300606D521686FF08000086184
:101F70002046FFF767FE680608D5700606D521687B
:101F80006FF040000861204600F01CF8A8060AD552
:101F9000B00608D521686FF0200008612046BDE832
:101FA000F041FFF750BEBDE8F08170477047000078
:101FB0000068B0F1804F02D101490120488070478C
:101FC000540000207047704770470000F8B5016862
:101FD00004460868CA684B6910F00F0F4FF00005FF
:101FE00059D003F0010602F49077374365D0C1075A
:101FF00005D0D10503D5616C41F001016164410751
:1020000005D5D90703D0616C41F0020161648107F5
:1020100005D5D90703D0616C41F004016164010763
:1020200007D502F02001314303D0616C41F0080173
:102030006164616C00293AD0800604D5900602D50F
:10204000204601F00BF920684069616CC0F38010F4
:10205000090700D460B3204601F0D9F82068406930
:10206000400621D52068143050E8001F21F04001BF
:1020700040E80012002AF5D1E06BA8B16D49416338
:10208000E06BFEF70BFE002811D0E06B416B01B056
:10209000BDE8F040084783060FD593060DD52046CE
:1020A000BDE8F84001F0DAB82046FFF78DFFF8BD33
:1020B0002046FFF789FF6564F8BD266B2023012EBB
:1020C0007CD1C6067AD5D60678D5086848680090CF
:1020D00048694FF00206400640D5E16B0868406849
:1020E0000004000CE8D0A28D8242E5D9E085886921
:1020F00020282DD020680C3050E8001F21F480717A
:1021000040E80012002AF5D12068143050E8001F82
:1021100021F0010140E80012002AF5D120681430B6
:1021200050E8001F21F0400140E80012002AF5D1DC
:1021300084F84230256320680C3050E8001F21F0FD
:10214000100140E80012002AF5D1E06BFEF782FD95
:102150006663A08DE18D401A81B22AE0A08DE18DE9
:10216000401A81B2E08D0028A6D00029A4D02268B0
:102170000C3252E8000F20F4907042E80007002F64
:10218000F5D12068143050E8002F22F0010240E819
:102190000027002FF5D184F84230256320680C30E9
:1021A00050E8002F22F0100240E80023002BF5D168
:1021B00066632046FFF707FFF8BDFFE705062BD54E
:1021C000150629D594F841002128F5D1A068B0F56D
:1021D000805F01D12069B0B1206A411C2162216871
:1021E00000784860E08C401E0004000CE084E3D1DD
:1021F0002068C16821F08001C1602068C16841F099
:102200004001C160D8E7206A0088C0F30800486038
:10221000206A801C2062E5E74006CDD55006CBD56C
:10222000CA68204622F04002CA6084F8413000F0BB
:102230008EF8C1E7FF31000870B5040004D094F8AF
:102240004100002510B106E0012070BD84F8405027
:10225000204600F023F8242084F841002068C1685B
:1022600021F40051C160204601F05AF8206801694C
:1022700021F4904101612068416921F02A01416106
:102280002068C16841F40051C1606564202084F871
:10229000410084F842006563002070BD70B586B0CF
:1022A0000025064600950195029503950068224990
:1022B00088423FD12149886940F48040886188691B
:1022C00000F480400490886940F0040088618869C7
:1022D0001B4C00F00400049048150090022001906F
:1022E0000320039069462046FEF746FE2015CDE9FF
:1022F0000005694620460295FEF73EFE124C114845
:1023000020601020C4E901058020C4E9030565614F
:10231000A5612046E561FEF7B7FD08B1FEF74EFA6C
:10232000B4630022114625206662FEF787FF252050
:10233000FEF776FF06B070BD003801400010024085
:1023400000080140440002406003002070477047CD
:10235000FEE70000FEB500242048009401941E49C9
:1023600002940160891581600125057304750426B6
:1023700006614FF460214460C161FEF70FFB08B1B4
:10238000FEF71CFA05200094CDE901506946134878
:10239000FEF782FA08B1FEF711FA0224CDE90054E3
:1023A00069460E48FEF778FA08B1FEF707FA00947E
:1023B0000324694609480194FEF76EFA08B1FEF756
:1023C000FDF9CDE9004669460448FEF765FA0028A4
:1023D00001D0FEF7F3F9FEBD002401400402002005
:1023E0000D4808B5416941F0010141614069002291
:1023F00000F00100009011460B20FEF71FFF0B209C
:10240000FEF70EFF002211460E20FEF717FFBDE873
:1024100008400E20FEF704BF001002402DE9F041F5
:1024200086B00024274800940194029403948169A3
:1024300041F010018161816901F01001049181690D
:1024400041F020018161816901F0200104918169DD
:1024500041F004018161816901F004010491816905
:1024600041F0080181618069174F00F00800049075
:10247000002210213846FEF76FFEDFF85080002260
:1024800001214046FEF768FE102001250326CDE914
:102490000005CDE9024669463846FEF76DFD039614
:1024A0000095CDE9015469464046FEF765FD0220DE
:1024B000CDE90004694640460294FEF75DFD06B092
:1024C000BDE8F0810010024000080140000C01400E
:1024D000104810B50E4901604FF48271416000212F
:1024E0008160C1604FF400720161C0E905121022E1
:1024F000C0E90721416281620A21C162FFF704FA43
:10250000002803D0BDE81040FEF758B910BD000008
:10251000003001407802002010B586B00024174832
:10252000009401940294039404944FF08041059424
:10253000016041F61F41C0E9011440F2E731C0E9F2
:1025400003148461FFF7B4FB08B1FEF737F94FF4C9
:102550008050009069460948FFF720FC08B1FEF75B
:102560002DF9049404A905480594FFF76DFB002894
:1025700001D0FEF723F906B010BD0000D002002004
:102580000C4810B50A4901604FF4E1314160002167
:1025900081600C22C160C0E904128161C161FFF752
:1025A0004BFE002803D0BDE81040FEF707B910BD70
:1025B0000038014018030020FEE7FEE770470000E6
:1025C00010B500F07FF802490020C87010BD00006F
:1025D00008000020F8B515460E460B46009204464A
:1025E0000122022100F010F840B933460022802178
:1025F0002046009500F008F8002804D0606D40F0F7
:10260000200060650320F8BD2DE9F8431E46914681
:1026100088460446089DFEF7A5FD401B351AFEF7C7
:10262000A1FD074625480068C0F3CB30684338E079
:10263000701C37D0FEF796FDC01BA84203D215B11F
:10264000009860B32CE02068416821F0E00141600F
:102650006068B0F5827F0BD1A068B0F5004F02D062
:10266000B0F5806F04D12068016821F0400101605D
:10267000A06AB0F5005F09D12068016821F400511B
:1026800001602068016841F400510160012084F874
:102690005100002084F850000320BDE8F883002595
:1026A000401E00902068816838EA010004D00021B3
:1026B0004945BDD10020F0E70121F9E77000002075
:1026C0007047000010B5094C07482062606200F0B6
:1026D0000FF800F018FC0120207100F023FCBDE889
:1026E000104000F00DB80000840000200800002019
:1026F000012210210148FEF72FBD00000008014013
:1027000070B52A4C0020A07000F010FA284D6F22FE
:10271000691C012000F0D0FB616A20206F22087341
:10272000691C012000F062FC6F22691C012000F08E
:10273000C3FB3034206800F0DFFAA07900F05EFBC4
:10274000E07900F0FBF9207A00F0AEFA607900F051
:102750003DFB607A00F00CFA40F2FF3000F076FBAF
:10276000207E00F0B9FA012000F01AFA6F22691CED
:10277000012000F0A1FB0F492068884207D9002002
:1027800000F05AFA002000F06DFA0E2006E08020DA
:1027900000F052FA012000F065FA1420207100F0D8
:1027A000C9FABDE87040012000F028BA08000020F6
:1027B00084000020008F42332DE9F84FD34C0126CE
:1027C000DFF84C93A0780027B0464FF0E02A04F1E0
:1027D0003005092870D2DFE800F06F05387BFDFC7A
:1027E000FBFAF900012000F009FA606A9D214174AA
:1027F000112000F0F5FBE87A012815D0616AFF206E
:1028000081F82400606A90F82410242000F0E8FB8E
:10281000062000F0F3F94FF48071BE48FDF7ADFCDF
:1028200000F00CFC02205EE1616A287B81F8240044
:102830001C201C3100F03CFB606A007F00F03F016F
:1028400059F8210000F058FADCE7B0491220491C81
:1028500000F02EFB6078400616D56770E87A0128F4
:102860000CD1616A1C201C3100F022FB606A007FE1
:1028700000F03F0159F8210000F03EFA40211220FB
:1028800000F0AEFB0320A0706078800715D567705C
:10289000E87A01280CD1616A1C201C3100F008FB89
:1028A000606A007F00F03F0159F8210000F024FA2F
:1028B0000221122000F094FB24E16770DAF8100086
:1028C000A061FEF74FFC21698842F5D304200AE19C
:1028D000616A1220123100F0EBFA606A807C800697
:1028E00006D52021122000F07BFB84F8028009E14C
:1028F0006946192000F0DCFA9DF80000010605D5B4
:10290000C043401CC0F38500404200E080082072B4
:1029100081492868DFF8F8918842DFF800A2DFF8E3
:1029200000B294F90800A9F1500922D2002813DA64
:10293000FDF7B6FD0F466979064609EBC101002295
:10294000D1E900015346FDF7CAFC00225B46FDF7C2
:102950001FFC0022734B21E0616A1A201A3100F03B
:10296000A7FA606A807EFDF7ACFD694B6A79F03B9F
:1029700025E0002817DAFDF793FD0F466979064632
:1029800009EBC1010022D1E900015346FDF7A7FC84
:1029900000225B46FDF7FCFB0022634BFDF7F8FBD2
:1029A00032463B460FE0616A1A201A3100F080FA85
:1029B000606A807EFDF785FD554B6A79A03B03EB8D
:1029C000C203D3E90023FDF7E3FB04E094E08CE0CD
:1029D0006CE022E01DE0C4E90A01606AC17B41733A
:1029E0000D2000F0FDFA687A01280ED0616A1320EC
:1029F000133100F05DFA606AC17CA181454800F0A6
:102A00007DFA84F8028002267CE0606A90F8221049
:102A1000F3E784F80280032674E0012000F0EEF86A
:102A2000E87A01282FD0606AF721417480F8247079
:102A3000606A90F82410242000F0D2FA606A417C89
:102A4000112000F0CDFA606AA17A80F822102220CD
:102A500000F0C6FA606A394687730E2000F0C0FAAB
:102A6000606A817B41730D2000F0BAFA606A90F8C9
:102A70002210284800F0DCFA032000F0BFF800F034
:102A8000E9FA06202FE0616AF5204874287B81F876
:102A900024001C201C3100F00BFA606A007F00F05B
:102AA0003F0159F8210000F027F9C1E7174912202A
:102AB000491C00F0FDF96078000706D56770082111
:102AC000122000F08DFA0720A070607880073FF593
:102AD000DEAE6770DAF81000E061FEF743FB616973
:102AE00088420FD30820A0700CE0012000F086F887
:102AF00084F80280042605E0012000F07FF884F8C5
:102B0000028005263046BDE8F88F0000080000204E
:102B100078370008F4000020008F42330000244082
:102B200000C065C000001040000018400248416A23
:102B30004220413100F0BCB90800002070B50B4DB7
:102B400004461D20696A1D3100F0B2F9686A417FB0
:102B500001F0F10141EA4401C9B241771D2000F0C2
:102B60003FFA05F13000C47170BD0000080000207C
:102B700070B50A4D04461D20696A1D3100F098F9B0
:102B8000686A417F01F0FE01214341771D2000F07A
:102B900027FA05F13000447270BD000008000020E3
:102BA00070B50A4D04462620696A263100F080F986
:102BB000686A10F8261F01F0F70141EAC4010170AC
:102BC000BDE87040262000F00BBA0000080000208D
:102BD00070B5094D04463120696A303100F068F95A
:102BE000686A10F8301F01F0F80121430170BDE858
:102BF0007040312000F0F4B9080000200D4A30B4D4
:102C0000536A00215C7824F0F8059571A8420ED033
:102C1000032800D10121D579A94200D0D17104F057
:102C2000F8010143597030BC012000F0D9B930BC23
:102C3000704700000800002070B5094D04460920C7
:102C4000696A093100F034F9686A417A01F07F015C
:102C500021434172BDE87040092000F0C1B9000075
:102C60000800002070B50F4C05464D20616A4C31BC
:102C700000F01EF9616A0920093100F019F9616A52
:102C8000487A00060BD51DB15FF0870081F84C0033
:102C900091F84C10BDE870404D2000F0A1B984209F
:102CA000F4E700000800002070B50A4D04461E201D
:102CB000696A1E3100F0FCF8686A817F01F0FB014F
:102CC00041EA840181771E2000F08AF905F1300085
:102CD000047270BD0800002010B504460548214666
:102CE000406A80F82240222000F07AF90148303012
:102CF000047610BD080000200C4910B50860FDF7EF
:102D0000E0FB00220A4BFDF75CFBFDF7E7FB074900
:102D1000020C3039496A01F8062F020A4A7088709D
:102D20000322BDE81040062000F060B93800002002
:102D300080844E4070B5244D04460920696A0931EB
:102D400000F0B6F8696A4D204C3100F0B1F8686ABD
:102D5000417A0A0629D590F84C3087229A4303D04D
:102D6000022C0EDA02240FE0052C01DA052402E021
:102D7000142C00DD142401F0F00141F07001621FF9
:102D800007E0112C00DD112401F0F00141F0700189
:102D9000A21E02F00F0211434172C9B2092000F0D5
:102DA0001FF909483030047170BD4FF0FF32944272
:102DB00001DA144602E00E2C00DD0E2401F0F001D1
:102DC00041F07001621CE4E70800002070B50A4D74
:102DD00004461D20696A1D3100F06AF8686A417F67
:102DE00064F31F11C9B241771D2000F0F9F805F115
:102DF0003000447170BD00000800002070B504462A
:102E00000C2801D90C2408E0062C02D24FF006044D
:102E100000E002D14FF0050001E04FF00300FFF7A2
:102E2000D7FE094D1E20696A1E3100F041F8686A1C
:102E3000817F64F31F11C9B281771E2000F0D0F8A2
:102E400005F13000847170BD0800002070B50C4D94
:102E500004460222696A1E201E3100F02DF8696ABC
:102E6000032202EA142211F81E0F00F0FC001043A6
:102E700008704C70BDE8704002221E2000F0B6B809
:102E80000800002010B5074A064CD27A303C02B147
:102E9000FF2161818AB201460348FDF755F90520FB
:102EA000A07010BD38000020F4000020FFF784BCA3
:102EB000012200F001B800002DE9F0410E4F154647
:102EC0000E460446002210213846FEF745F904F06C
:102ED0007F0000F0CBF8002405E0002000F0C6F8E9
:102EE0003055641CE4B2AC42F7D33846BDE8F0413B
:102EF00001221021FEF730B9000801400A460146C0
:102F00000020FFF7D9BF10B5012000F047F80120DD
:102F100000F0AAFA002000F041F8BDE810400620B9
:102F200000F0A2BA70B51B4C6179814231D060715A
:102F30002071194D00284FF0000016D0FFF75EFEFB
:102F4000606A417841F080014170012000F048F84A
:102F50000120FFF753FE616A0020022201F83F0FB3
:102F60004870402000F042F80CE0FFF747FE606A2E
:102F7000417801F07F014170012000F031F801201B
:102F8000FFF73CFE691CBDE870406F220120FFF78F
:102F900093BF70BD080000208400002010B50128F8
:102FA00012D10A4C002201212046FEF7D5F80A2052
:102FB000FDF7D0FF012211462046FEF7CDF8BDE80F
:102FC00010400A20FDF7C6BF10BD0000000C0140F4
:102FD000FFF758BF014901208870704708000020A2
:102FE00013B5012201A900F001F81CBD2DE9F04143
:102FF0000E4F15460E460446002210213846FEF7B5
:10300000ABF844F0800000F031F8002404E0305DBB
:1030100000F02CF8641CE4B2AC42F8D33846BDE8AA
:10302000F04101221021FEF797B80000000801408E
:103030000A4601460020FFF7D9BF000010B5FEF791
:1030400091F803494969084401493039086110BDC4
:103050003800002010B5FEF785F8034909690844D7
:1030600001493039486110BD3800002001B582B0F7
:1030700000208DF8040064200090012301AA02A919
:103080000248FEF7D3FC9DF804000EBD7802002034
:10309000FEF76EB830B593B028216846FDF76DF89D
:1030A00014210AA8FDF769F8002501200F95109555
:1030B0001195010412958DE8230004904FF4E0105F
:1030C000CDE90810022407946846FEF78DFA08B18E
:1030D00072B6FEE70AA90F2081E831004FF4806044
:1030E000CDE90D0502210AA8FEF7A2F908B172B6D2
:1030F000FEE74FF4004011900F940FA8FEF722F95D
:10310000002801D072B6FEE713B030BD7047000052
:103110000148FEF7B2BE0000D0020020F0B5026800
:10312000194B1A4C1A4D4FF08047984205D0B842BF
:1031300003D0A04201D0A84203D122F070064A6811
:103140003243984205D0B84203D0A04201D0A842F1
:1031500003D122F44074CA6822434C6922F08002F1
:10316000224302608A68C2620A688262984201D180
:1031700009690163012141610169C90703D001693E
:1031800021F001010161F0BD002C0140000400406C
:103190000008004010B5846842EA032224F47F440A
:1031A0000A432243826010BD826822F070020A4303
:1031B00042F007018160704710B5036A046A24F089
:1031C00001040462846924F0F00444EA021423F048
:1031D0000A020A438461026210BD10B5036A046AE0
:1031E00024F010040462846923F0A00324F47044E2
:1031F00044EA023243EA01118261016210BD10B556
:10320000406A0021C185C184FEF7DEFE10BD016861
:103210000C3151E8002F22F4907241E80023002B7A
:10322000F5D10168143151E8002F22F0010241E884
:103230000023002BF5D1016B012909D101680C3164
:1032400051E8002F22F0100241E80023002BF5D1B5
:10325000202180F8421000210163704708B590F8E2
:103260004210222901D0022008BD82684FF4805309
:103270009A4201D1016921B1816A9A421BD04AB1B7
:103280000AE00268816A5268C2F308020A80816A11
:10329000891C08E0026972B10268526802F07F027C
:1032A0000A70816A491C8162C18D491E0904090C9A
:1032B000C18503D01BE002685268F1E70168CA6863
:1032C00022F02002CA600168CA6822F48072CA60D3
:1032D00001684A6922F001024A61202180F8421007
:1032E00000214163026B012A03D0FFF72FF8002071
:1032F00008BD016301680C3151E8002F22F0100273
:1033000041E80023002BF5D101680A68D20602D5F6
:103310000A6849680091818DFEF755FEE7E70000D5
:1033200070B5044600680169E26821F44051114318
:1033300001612169A0680843616908432168CA687E
:1033400041F20C639A430243CA6020684169A26952
:1033500021F44071114341611E492068884202D125
:10336000FEF70CF901E0FEF7F9F800EBC00101EB04
:103370000012606864218000B2FBF0F3B3FBF1F34C
:103380006FF018067343B2FBF0F5B2FBF0F605EBF5
:103390008305322303EB0515B5FBF1F5B6FBF1F61A
:1033A00005F0F00505EB0615B2FBF0F6B2FBF0F008
:1033B000B0FBF1F06FF01802504306EB800003EB16
:1033C0000010B0FBF1F0216800F00F002844886085
:1033D00070BD0000003801400148FEF7F7BD000055
:1033E00018030020FEE70907090E002804DB00F19E
:1033F000E02080F80014704700F00F0000F1E0209A
:1034000080F8141D704702E008C8121F08C1002A86
:10341000FAD170477047002001E001C1121F002A55
:10342000FBD170470D4810B500210180418081809B
:10343000C1800B4800F01AF80849094800F023F849
:10344000074800F025F80E21054800F016F901287C
:1034500003D1FDF787FE0349486010BD000000203E
:10346000F401002054000020FDF774BDAA21017072
:1034700055214170082181700121C17000214160F6
:103480008160818170470A68426049688160704745
:1034900010B504460C2100F07BF8A08110BDA0F50A
:1034A0000061A0F2CF70632800D200214FF47A703F
:1034B0004143C81701EB5050C0127047FDF760FE42
:1034C000FFF7E8FDFEF7AAFFFEF78AFFFEF742FFCF
:1034D000FFF756F8FFF720F8FEF7FAFFFFF770F84E
:1034E00000F06EF82548FDF76BF9042224492348C3
:1034F000FDF72AFB2348FEF725FCFFF76BFD204C68
:1035000000254FF4FA77083C5FF00106FFF7CEFC88
:10351000207800B926706088F8B16580FDF722FE3A
:1035200060602078052819D2DFE800F01903191926
:103530001500134800F056F81348FFF797FF13499A
:103540001148FFF7A0FF1048FFF7A2FF0E210E4819
:1035500000F093F803E0FFF765FF00E02570FDF74A
:1035600001FE6168401AB84202D904202070CDE7FC
:1035700020780428CAD12670C8E700000402002081
:103580005C000020D0020020F40100200000002098
:1035900070B505464FF6FF7000224AF201040BE0B9
:1035A000AB5C58400023C6074FEA500000D0604093
:1035B0005B1C082BF7DB521C8A42F1DB70BD00005C
:1035C000074900224FEA02004A800A80CA808A80A6
:1035D00001EB4003401C1A810428F9DB704700000E
:1035E000740000203FB502460088FFF758FF0090A6
:1035F0005088FFF754FF01909088FFF750FF02902A
:10360000D088FFF74CFF0390124900206C4600BFA2
:1036100001EB400354F82050B3F90820401C02EBA2
:1036200042022A44D51702EB957292101A8104289F
:10363000EEDB0D890D804C894C808A898A80064B8F
:10364000B1F90E00C8801D805C809A8000F006F8F9
:10365000D8803FBD74000020000000204FF42F717F
:10366000002801DA002002E0884200DD08464FF41D
:103670007A72504390FBF1F0704710B5FFF7A8FC49
:10368000012010BD0000000000000000006063C0C9
:1036900000000000006063C000000000006063C024
:1036A00000000000006063C000000000006063C014
:1036B00000000000006063C000000000006063C004
:1036C00000000000006063C000000000006063C0F4
:1036D00000000000006063C00000000000C062C085
:1036E0000000000000C062C00000000000C062C016
:1036F0000000000000C062C00000000000C062C006
:103700000000000000C062C00000000000C062C0F5
:103710000000000000C062C00000000000C062C0E5
:103720000000000000C062C0417574196F240F4092
:103730002EBAACDA271210404032C4C178C610400D
:10374000661330AC68461140E029CEF6B9FA114054
:103750000101CEFEA97A12408021D82BFB2E134006
:103760002019E2603C631440C010EC957D97154031
:103770006008F6CABECB164020AEA036E07D0B37FF
:10378000A017083660F0AF3660F0AF36403D2E36F9
:10379000C0AFD235000D993620A5633680A33137EE
:1037A0004061223760DE353640466B36A032BF3688
:1037B000A032BF36A00ECB35E0625436A044393774
:1037C000A00ECB35809AF436001F1337E050DA355F
:1037D00040466B36809AF43680A33137807F3D3681
:1037E0000016D636A03BFC36C0C14C36809AF43663
:1037F00060DE353680A33137809AF4368091B73653
:1038000060022A3700FB1E3660F0AF36A04439371D
:10381000209C2636000D993660D5F835000D993676
:10382000C0AFD2354034F135C0CA893640466B3618
:10383000C0B80F36807F3D36A044393760022A3742
:10384000C0C14C36010202030405060708090A0B31
:103850000C0D0E0F101001020203040506070809E3
:103860000A0B0C0D0E0F10100000000000000000ED
:103870000102030406070809000000000102030416
:10388000A038000800000020740000000634000882
:1038900014390008740000203407000016340008B2
:1038A0000000000000000000010000000000010115
:1038B0000000000000000000000000000000000008
:1038C00000000000000000000000000000000000F8
:1038D0000000000000000000400ECF19140607028F
:1038E00001000100040000002C0100002C01000078
:1038F00006000000000000000000000000000000C2
:1039000000000000010000001000000000000000A6
:0439100000127A0027
:04000005080000ED02
:00000001FF
