:020000040800F2
:1000000048050020050100086B1D0008D51B0008ED
:10001000691D0008B5020008392100080000000031
:100020000000000000000000000000006F1D00083C
:10003000EF020008000000006D1D0008711D00089F
:100040001F0100081F0100081F0100081F01000810
:100050001F0100081F0100081F0100081F01000800
:100060001F0100081F0100081F010008B902000855
:100070001F0100081F0100081F0100081F010008E0
:100080001F0100081F0100081F0100081F010008D0
:100090001F0100081F0100081F0100081F010008C0
:1000A0001F0100081F0100081F0100081F010008B0
:1000B000F11D00081F0100081F0100081F010008B2
:1000C0001F0100081F0100081F0100081F01000890
:1000D0001F0100082D2100081F0100081F01000852
:1000E0001F0100081F0100081F010008DFF810D0E1
:1000F00000F02CF800480047AD210008AFF3008065
:10010000480500200648804706480047FEE7FEE70E
:10011000FEE7FEE7FEE7FEE7FEE7FEE7FEE7FEE7B7
:10012000ED1D0008ED000008D2B201E000F8012B3F
:10013000491EFBD270470022F6E710B513460A4667
:1001400004461946FFF7F0FF204610BD064C074D48
:1001500006E0E06840F0010394E807009847103497
:10016000AC42F6D3FFF7C6FF4C2300086C2300080F
:1001700070B5044600688168C943C90717D1816812
:1001800021F00101816000F081FD05460AE000BF19
:1001900000F07CFD401B022804D920688068C04321
:1001A000C00706D020688068C043C007F0D0002098
:1001B00070BDA06A40F01000A062E06A40F001004B
:1001C000E062012070BD10B50146406A826A12F0FB
:1001D000500F05D0006A026BBDE81040084610477A
:1001E000816A41F40071816201688968C1F342410A
:1001F00007290CD1017B51B9816A21F48071816298
:10020000816AC90403D4816A41F00101816200F06E
:100210005BF910BD10B5406A816A41F0400181620E
:10022000C16A41F00401C16200F050F910BD10B57F
:10023000406A00F04AF910BDF8B500260446009661
:1002400000688168C943C9072DD0816841F0010168
:100250008160164816490068B0FBF1F000E0401ECE
:1002600000900028FBD100F011FD054616E000BF0C
:1002700000F00CFD401B022810D920688068C043A4
:10028000C0070BD0A06A40F01000A062E06A40F006
:100290000100E06284F824600120F8BD20688068D5
:1002A000C043C007E4D10020F8BD000020000020BA
:1002B00040420F00FEE70000014800F0D5BA000000
:1002C0007000002030B590F840500124AC40C56B60
:1002D0006C60046863604368102B036803D0996006
:1002E0000068C26030BD9A600068C16030BD704770
:1002F00072B6FEE7F8B500250446009590F8240094
:1003000001280BD0012084F824002046FFF730FF9D
:100310002046FFF791FF060002D050E00220F8BD12
:10032000A06A20F4885040F00200A062022000F091
:100330004BFD25490968B1FBF0F0400000E0401E8C
:1003400000900028FBD12068816841F0080181609D
:1003500000F09CFC074608E000F098FCC01B0A284F
:1003600003D920688068000715D4206880680007DA
:10037000F2D42068816841F00401816000F086FCBD
:10038000074612E000F082FCC01B0A280DD9206845
:100390008068400709D5A06A20F0020040F01000F4
:1003A000A06284F824500120F8BD206880684007CE
:1003B000E8D4A06A20F0020040F00100A06284F8B6
:1003C00024503046F8BD000020000020F8B500247D
:1003D000009490F824202546012A12D0012280F8AA
:1003E00024204A681F23072A0DD20668776B521E05
:1003F00002EB820293409F430B6893401F43776355
:1004000019E00220F8BD06680D2A0AD2376BD21F08
:1004100002EB820293409F430B6893401F43376374
:1004200009E0F76A0D3A02EB820293409F430B68A2
:1004300093401F43F7620A68072306680A2A0AD313
:10044000F7680A3A02EB420293409F438B6893405D
:100450001F43F76008E0376902EB420293409F4375
:100460008B6893401F4337610A68102A01D0112A14
:1004700020D1124B02689A4217D193681B0219D4FB
:10048000936843F4000393600968102912D10C4962
:100490000C4A0968B1FBF2F101EB8101490000E06F
:1004A000491E00910029FBD104E0816A41F020013E
:1004B0008162012480F824502046F8BD00240140C8
:1004C0002000002040420F00704770477047000036
:1004D0002DE9F0414FF0000704003D467ED0A06AB0
:1004E000002628B9E66284F82460204600F07EF8F1
:1004F0002046FFF73DFEA16AC90600D420B1A06ADC
:1005000040F01000A06269E0A16A21F4885141F036
:100510000201A1626268E169237B0A4347EA430161
:100520000A43A1684FF48077B94209D0012907D066
:100530005FF0000194F814C0BCF1010F02D00AE092
:100540003946F7E7F3B1A36A43F02003A362E36AF5
:1005500043F00103E3622368D3F804C02CF4694C30
:100560004CEA010CC3F804C021688B68DFF870C046
:1005700003EA0C0313438B60A168B9420BD0012935
:1005800009D00CE0DFF85CC0A3690CEB43330B43EC
:1005900043F40061DFE7218A0D05A5F58015216888
:1005A000CB6A23F470032B43CB62216889680E4B1E
:1005B0001940914208D1E662A16A21F0020141F09E
:1005C0000101A162BDE8F081A06A20F0020040F0C4
:1005D0001000A062E06A40F00100E0620120F1E753
:1005E000FDF7E1FF00E0FFFFFE0E1FFF70B586B0D4
:1005F00000260546009601960296039600681A4961
:1006000088422FD11949886940F40070886188694F
:1006100000F400700490886940F0040088618869E3
:10062000694600F0040004900F2000900320019020
:100630000F4800F03BFA104C0E48C4E90006802039
:10064000C4E9026040002061800060612020A06158
:100650000002E061204600F0B1F908B1FFF748FE62
:100660002C62656206B070BD00240140001002409B
:100670000008014008000240700000202DE9F0470A
:10068000894604463B4900683B4F0E1D9046884210
:1006900001D0B84207D1306810F4702F03D0012583
:1006A0002846BDE8F08794F8240001280CD00120EA
:1006B00084F824002046FFF7BFFD05004FF000003E
:1006C00004D084F82400EBE70220EAE7A16A40F6B0
:1006D0000162914341F48071A1622168B94218D14D
:1006E000326812F4702F14D0A16A41F48011A16213
:1006F0003168490505D5A16A21F4005141F48051C2
:10070000A162A16AC9040AD5E16A21F00601E16289
:1007100006E0A26A22F48012A2624968E9E7E06278
:1007200084F82400216A15488862216A1448C86246
:10073000216A1448086321686FF00200086020688D
:10074000816841F480718160216843464A464C319A
:10075000206A00F061F920688168C1F342410729ED
:10076000816803D041F48011816099E741F4A001D0
:10077000FAE700000024014000280140C7010008FA
:100780002F0200081502000810B590F82110002271
:10079000022905D00421816380F82020012010BDAA
:1007A00001680B6823F00E030B6001680B6823F0EF
:1007B00001030B6090F84030C46B012101FA03F390
:1007C000636080F8211080F82020104610BD0000E2
:1007D00010B590F821100024022903D00421816370
:1007E00001243DE001680A6822F00E020A600168F7
:1007F0000A6822F001020A601A4A0168914201D196
:10080000012121E0174A1432914201D110211BE04D
:10081000144A2832914201D1891515E0114A3C321F
:10082000914201D189140FE00E4A5032914202D117
:100830004FF4803108E00B4A6432914202D14FF408
:10084000801101E04FF08071064A083A51600121A1
:1008500080F82110002180F82010416B01B18847F9
:10086000204610BD080002402DE9F05FC16B0C6806
:1008700001680B68D0F840C0042202FA0CF2494D1E
:10088000DFF824A1494E4A4FDFF828B1DFF828E10C
:1008900022422CD05A072AD50A68920603D40A6845
:1008A00022F004020A600168A94201D1042219E081
:1008B000514501D1402215E0B14202D14FF480628E
:1008C00010E0B94202D14FF480420BE0594502D109
:1008D0004FF4802206E0714502D14FF4800201E01E
:1008E0004FF080622F4908394A60C16A3BE04FF0FF
:1008F000020808FA0CF818EA040F4FF000094FF04C
:10090000010235D05FEA837832D50B689B0605D4A7
:100910000B6823F00A030B6080F821200168A942CC
:1009200001D1022219E0514501D1202215E0B14246
:1009300002D14FF4007210E0B94202D14FF40052DC
:100940000BE0594502D14FF4003206E0714502D167
:100950004FF4001201E04FF00072124908394A606A
:1009600080F82090816A00291AD0BDE8F05F08471E
:10097000082505FA0CF5254212D01B0710D50B6887
:1009800023F00E030B6090F84010C36B02FA01F1E4
:100990005960826380F8212080F82090016BE2E7A3
:1009A000BDE8F09F080002401C00024030000240F9
:1009B00044000240580002406C00024030B528B3A9
:1009C00008C8134914221944B1FBF2F18900C1632C
:1009D00010498163022141771A6843F6F0718A4316
:1009E000D0E900142143D0E902452C432143046996
:1009F0002143446921438469214311431960002143
:100A00004163012242770177084630BD012030BDA5
:100A1000F8FFFDBF0000024070B5044690F82000CA
:100A2000002501280CD0012084F8200094F82160D2
:100A30000020012E06D084F820000225284670BD33
:100A4000022070BD022684F82160A0632068066839
:100A500026F0010606602046FFF734FCE06A002815
:100A60002068016802D041F00E0106E021F0040187
:100A700001602068016841F00A0101602068016896
:100A800041F001010160D9E770B5044600F0FEF8BD
:100A90000546601C02D004480078044400F0F6F8D3
:100AA000401BA042FAD370BD140000202DE9F84F7E
:100AB000DFF8B8910024A9F1040B23460F2709F1B0
:100AC000040AABF1040EC9E00125A5402A40AA4260
:100AD0007DD1674ED1F804C0ACEB0608B44532D0E6
:100AE00014DCBCF1030F3AD009DCBCF1000F2AD0B2
:100AF000BCF1010F1CD0BCF1020F31D11DE0BCF1E3
:100B0000110F17D0BCF1120F2AD119E0B8F5881FC8
:100B100019D006DCB8F5803F15D0B8F5801F1FD17D
:100B200011E0B8F5001F0ED0B8F5041F18D10AE087
:100B3000CB6815E0CB681B1D12E0CB6808330FE0D3
:100B4000CB680C330CE08B682BB1012B4FF0080302
:100B500003D0456104E0042302E0056100E00023C6
:100B6000FF2A01D8064601E000F104064FEA840599
:100B700001D9A5F12005D6F8008007FA05FC28EA7E
:100B80000C0803FA05F548EA0508C6F800804D6828
:100B9000ED0062D5374DAE6946F00106AE61AD6934
:100BA00024F0030605F001050095334D06EB050C16
:100BB000DCF80850A607360F07FA06F825EA0805FC
:100BC000DFF8B880404503D14FF0000817E044E05B
:100BD000DFF8AC80404502D14FF001080FE0DFF8AC
:100BE000A480404502D14FF0020808E0DFF8988069
:100BF000404502D14FF0030801E04FF0040808FA25
:100C000006F848EA0508CCF808804D68D9F8006075
:100C1000ED024D4601D5164300E096432E604D6827
:100C2000DAF80060AD02554601D5164300E0964360
:100C30002E604D68DBF80060AD035D4601D51643BC
:100C400000E096432E604D68DEF80060ED037546C7
:100C500001D5164300E096432E60641C0D682A46B9
:100C6000E5407FF431AFBDE8F88F00000804014093
:100C70000000111000100240000001400008014077
:100C8000000C014000100140001401400148806840
:100C90007047000014000020024881680278114467
:100CA0008160704714000020074810B5016841F0CA
:100CB00010010160032000F075F80F2000F006F825
:100CC00000F024F8002010BD0020024070B50D4D4A
:100CD00004464FF47A712878B1FBF0F00A490968AC
:100CE000B1FBF0F000F0A4FB48B9102C07D20022B1
:100CF0002146501E00F036F800206C6070BD0120C7
:100D000070BD000014000020200000200C4808B531
:100D1000816941F001018161816901F00101009166
:100D2000C16941F08051C161C06900F080500090FC
:100D30000448416821F0E06141F00071416008BD64
:100D40000010024000000140002809DB00F01F02F3
:100D5000012191404009800000F1E020C0F800111D
:100D600070470000F0B40E4B1B680C46C3F302231F
:100D7000C3F10705042D00D90425191D072901D247
:100D8000002300E0DB1E012606FA05F1491E214082
:100D900099409E40761E16403143F0BC01F0CDB91B
:100DA0000CED00E0064900F0070208684FF6FF036B
:100DB000184040EA0220034A1043086070470000D0
:100DC0000CED00E00000FA0510B501460020234CB0
:100DD000012922D0022939D010291DD16168226849
:100DE000D20119D51E48C1F38342C903805C0AD5DC
:100DF00061681B4AC1F34041921E515C194AB2FB23
:100E0000F1F1484301E0184948436168490203D4BD
:100E100040000321B0FBF1F010BD226AC2F30121B2
:100E2000012903D1920701D5C80310BD022905D1BC
:100E3000626A920702D549F6404010BD0329FCD1F1
:100E400021688903F9D54FF2244010BD00F02AF93A
:100E50006168C1F38131491C4900DBE700100240A1
:100E60002223000800127A0000093D002DE9F84312
:100E700005460078354CC00754D0E0690026C00014
:100E800008D4E06940F08050E061E069012600F09C
:100E9000805000902E480168C90512D40168804630
:100EA00041F480710160FFF7F1FE074605E000BFE5
:100EB000FFF7ECFEC01B642823D8D8F80000C0055B
:100EC000F6D5206A10F4407021D0A98801F4407151
:100ED00081421CD0206A1F49012220F440700A6020
:100EE00000220A602062C00711D0FFF7CFFE07463C
:100EF00041F2883808E000BFFFF7C8FEC11B41453A
:100F000002D90320BDE8F883206A8007F4D5206A5F
:100F1000696820F44070084320621EB1E06920F047
:100F20008050E0612878800705D56068A96820F4C2
:100F30004040084360602878C00605D56068E968CD
:100F400020F48000084360600020DBE700100240CE
:100F500000700040400442422DE9F0470F46050072
:100F600061D0434E306800F00700B84209D23068C3
:100F700020F0070038433060306800F00700B842C6
:100F800051D128683B4C810712D5400703D56068D2
:100F900040F4E06060602878000703D5606840F4A2
:100FA000605060606068A96820F0F00008436060ED
:100FB0002878C00728D06868012810D02168022846
:100FC00010D0890700292EDA616821F0030101435E
:100FD0006160FFF75BFE804641F288390DE02168D1
:100FE0008903EFE78901EDE7FFF750FEA0EB080169
:100FF000494502D90320BDE8F0876068696800F0C0
:101000000C00B0EB810FEFD1306800F00700B84260
:101010000BD9306820F0070038433060306800F0AA
:101020000700B84201D00120E5E72878400705D540
:101030006068E96820F4E060084360602878000791
:1010400006D56068296920F4605040EAC1006060FC
:1010500000F038F86168084AC1F30311515CC840D8
:101060000649086006480068FFF730FE0020C2E726
:10107000002002400010024032230008200000201F
:10108000180000200448054900684968044AC1F373
:101090000221515CC840704720000020001002402F
:1010A000422300080448054900684968044AC1F31E
:1010B000C221515CC840704720000020001002404F
:1010C000422300080E4A51680E4801F00C03042B1D
:1010D00011D0082B0FD10C48C1F38343C903C05C66
:1010E0000AD55168084AC1F34041921E515C054A35
:1010F0005043B0FBF1F0704704494843704700008B
:101100000010024000127A001023000800093D0080
:101110002DE9F84F040070D02078C04DC00749D0A9
:101120006868C0F38100012807D06868C0F38100B7
:10113000022809D16868C00306D52868800339D51C
:1011400060680028E7D035E06068B0F5803F0BD0DC
:1011500010B1B0F5A02F11D0286820F4803028609D
:10116000286820F4802002E0286840F4803028605D
:10117000606890B1FFF78AFD06460AE0286840F4EF
:1011800080202860F0E700BFFFF780FD801B642807
:1011900073D828688003F7D50CE0FFF777FD064683
:1011A00005E000BFFFF772FD801B6428F0D82868B7
:1011B0008003F7D420789A4E80074FF001094FF052
:1011C000000839D5686810F00C0F07D06868C0F3C4
:1011D0008100022809D16868C00306D42868800706
:1011E00014D52069012808D110E02069B0B1C6F8F3
:1011F0000090FFF74BFD074605E00AE1FFF746FDCB
:10120000C01B0228C4D828688007F7D52868616900
:1012100020F0F80040EAC10028600DE0C6F8008028
:10122000FFF734FD074604E0FFF730FDC01B02283E
:1012300023D828688007F7D4207800072CD5794870
:10124000A169D9B1C0F80090FFF720FD074604E07E
:10125000FFF71CFDC01B02280FD8686A8007F7D56E
:1012600071484FF4FA510068B0FBF1F0009000BFF4
:101270000098411E0091FAD20EE080E0C0F8008094
:10128000FFF704FD074604E0FFF700FDC01B02283E
:1012900075D8686A8007F7D42078400760D5E86978
:1012A0000027C00008D4E86940F08050E861E86990
:1012B000012700F0805000905C480168C90513D4F4
:1012C0000168834641F480710160FFF7DFFC8246CC
:1012D00006E000BFFFF7DAFCA0EB0A0064284ED856
:1012E000DBF80000C005F5D5E06801280AD008B198
:1012F000052813D0286A20F001002862286A20F00F
:10130000040002E0286A40F001002862E06841F22F
:10131000883B98B1FFF7BAFC82460BE0286A40F0A0
:1013200004002862EEE700BFFFF7B0FCA0EB0A0163
:1013300059455AD8286A8007F6D50CE0FFF7A6FC75
:10134000824605E0FFF7A2FCA0EB0A0159454CD804
:10135000286A8007F6D41FB1E86920F08050E86160
:10136000E06988B36968C1F38101022944D0022889
:10137000C6F8608004D0FFF789FC044638E034E00A
:10138000FFF784FC074604E0FFF780FCC01B02283F
:101390002BD828688001F7D4206AB0F5803F05D1AA
:1013A0006868A16820F4003008436860D4E9080147
:1013B0000843696821F4741108436860C6F86090B6
:1013C000FFF764FC044606E025E000BFFFF75EFC83
:1013D000001B022809D828688001F7D51BE000BF50
:1013E000FFF754FC001B022802D90320BDE8F88F48
:1013F00028688001F4D40EE00128F7D06868226ADA
:1014000000F48031914204D1616A00F47010884286
:1014100001D00120EAE70020E8E7000000100240C8
:101420000000424280044242200000200070004040
:1014300010B5401EB0F1807F01D3012010BD4FF0E8
:10144000E02460610F21601700F077FE0020A061AA
:1014500007202061002010BD7047704770B590F8DC
:101460003C20012A26D0012480F83C40022280F84A
:101470003D2003685A689D6822F070060A6832436E
:101480005A600D4B02689A4208D0B2F1804F05D0E5
:101490000A4B9A4202D00A4B9A4204D1496825F07D
:1014A00080031943916080F83D40002180F83C1092
:1014B000084670BD022070BD002C014000040040B1
:1014C0000008004010B5040003D094F83D0010B1AE
:1014D00007E0012010BD002084F83C00204600F009
:1014E0001FF8022084F83D00211D206800F086FCD2
:1014F000012084F8460084F83E0084F83F0084F818
:10150000400084F8410084F8420084F8430084F8E5
:10151000440084F8450084F83D00002010BD000020
:1015200008B50068B0F1804F12D10A48C16941F096
:101530000101C161C069002200F001000090114664
:101540001C20FFF70FFCBDE808401C20FFF7FCBB88
:1015500008BD00000010024090F83D10012901D0A4
:1015600001207047022180F83D100168CA6842F0EE
:101570000102CA6000680B49884208D0B0F1804F70
:1015800005D00949884202D00849884204D18168BF
:1015900001F00701062903D0016841F00101016053
:1015A00000207047002C014000040040000800406B
:1015B00070B5044690F83C000025012817D001269C
:1015C00084F83C60022084F83D002068826822F0A4
:1015D000770222F47F4282600868502838D00DDC00
:1015E00020284FD005DC90B3102811D14AE002200A
:1015F00070BD302846D040280AD13BE060282FD06B
:1016000070280DD0B0F5805F03D0B0F5005F12D028
:10161000012584F83D60002084F83C00284670BD18
:10162000CB68D1E90121206800F024FC20688168A2
:1016300041F0770109E0CB68D1E90121206800F091
:1016400019FC2068816841F480418160E1E719E07C
:10165000CA684968206800F01FFC5021206806E035
:10166000CA684968206800F028FC6021206800F002
:101670000BFCCEE7CA684968206800F00DFC4021E9
:101680002068F4E7226801461046F0E770472DE92C
:10169000F04104460068C66805694FF00007A907D5
:1016A00013D5B10711D5F91E0161012020772068FB
:1016B00080698007204602D0FFF7E8FF04E000F0D1
:1016C0007EF8204600F07CF82777680716D570076B
:1016D00014D521686FF0040008610220207720688B
:1016E000806910F4407F204602D0FFF7CFFF04E06E
:1016F00000F065F8204600F063F82777280715D535
:10170000300713D521686FF00800086104202077A6
:101710002068C0698007204602D0FFF7B7FF04E0C9
:1017200000F04DF8204600F04BF82777E80616D574
:10173000F00614D521686FF01000086108202077AA
:101740002068C06910F4407F204602D0FFF79EFF5A
:1017500004E000F034F8204600F032F82777E8077C
:1017600008D0F00706D021686FF00100086120461C
:1017700000F028F8280608D5300606D521686FF055
:10178000800008612046FFF767FE680608D57006EE
:1017900006D521686FF040000861204600F01CF873
:1017A000A8060AD5B00608D521686FF020000861A8
:1017B0002046BDE8F041FFF750BEBDE8F08170471C
:1017C000704700000068B0F1804F02D1014901204C
:1017D000088070470800002070477047704700007D
:1017E000F8B5016804460868CA684B6910F00F0F25
:1017F0004FF0000559D003F0010602F4907737430B
:1018000065D0C10705D0D10503D5616C41F0010158
:101810006164410705D5D90703D0616C41F002012D
:101820006164810705D5D90703D0616C41F00401DB
:101830006164010707D502F02001314303D0616CD8
:1018400041F008016164616C00293AD0800604D53A
:10185000900602D5204600F071FB20684069616C5B
:10186000C0F38010090700D460B3204600F03FFBAE
:1018700020684069400621D52068143050E8001FD8
:1018800021F0400140E80012002AF5D1E06BA8B138
:101890006D494163E06BFEF79BFF002811D0E06BC0
:1018A000416B01B0BDE8F040084783060FD59306B1
:1018B0000DD52046BDE8F84000F040BB2046FFF7BC
:1018C0008DFFF8BD2046FFF789FF6564F8BD266BE4
:1018D0002023012E7CD1C6067AD5D60678D5086895
:1018E0004868009048694FF00206400640D5E16B19
:1018F000086840680004000CE8D0A28D8242E5D957
:10190000E085886920282DD020680C3050E8001F21
:1019100021F4807140E80012002AF5D120681430CB
:1019200050E8001F21F0010140E80012002AF5D123
:101930002068143050E8001F21F0400140E80012F8
:10194000002AF5D184F84230256320680C3050E835
:10195000001F21F0100140E80012002AF5D1E06BD1
:10196000FEF712FF6663A08DE18D401A81B22AE076
:10197000A08DE18D401A81B2E08D0028A6D000290B
:10198000A4D022680C3252E8000F20F4907042E894
:101990000007002FF5D12068143050E8002F22F006
:1019A000010240E80027002FF5D184F8423025637A
:1019B00020680C3050E8002F22F0100240E800238D
:1019C000002BF5D166632046FFF707FFF8BDFFE760
:1019D00005062BD5150629D594F841002128F5D107
:1019E000A068B0F5805F01D12069B0B1206A411CC8
:1019F0002162216800784860E08C401E0004000CE1
:101A0000E084E3D12068C16821F08001C1602068D2
:101A1000C16841F04001C160D8E7206A0088C0F386
:101A200008004860206A801C2062E5E74006CDD5AA
:101A30005006CBD5CA68204622F04002CA6084F81E
:101A4000413000F0C6F8C1E7DF1E000870B50400A1
:101A500004D094F84100002510B106E0012070BDCB
:101A600084F84050204600F023F8242084F84100F8
:101A70002068C16821F40051C160204600F0C0FA1E
:101A80002068016921F4904101612068416921F0D9
:101A90002A0141612068C16841F40051C160656458
:101AA000202084F8410084F842006563002070BD66
:101AB00030B585B00024009401940294039400682A
:101AC000184988422CD11848816941F480418161CC
:101AD000816901F480410491816941F004018161CF
:101AE0008069124D00F0040004904FF400700090E3
:101AF000022001900320039069462846FEF7D6FF96
:101B00002815CDE90004694628460294FEF7CEFF69
:101B1000002211462520FFF725F92520FFF714F9AB
:101B200005B030BD003801400010024000080140FF
:101B300070472DE9F843044690F841009846164650
:101B40000D46202802D00220BDE8F88385B17EB181
:101B500000206064212084F84100FFF797F8A684F4
:101B60008146E684A0682027B0F5805F02D003E0BC
:101B70000120E9E7206910B12E4600250EE000267D
:101B80000CE08021204600F097FAA8B9C6B116F8FB
:101B9000010B21684860E08C401EE084E08C4B46DD
:101BA0004FF00002CDF800800028EAD14FF040014C
:101BB000204600F081FA40B184F841700320C3E769
:101BC00035F8020BC0F30800E3E784F84170002009
:101BD000BAE77047FEE70000FEB5002420480094F5
:101BE00001941E49029401608915816001250573E5
:101BF0000475042606614FF460214460C161FEF75C
:101C000067FC08B1FEF774FB05200094CDE9015094
:101C100069461348FEF7DAFB08B1FEF769FB0224B8
:101C2000CDE9005469460E48FEF7D0FB08B1FEF737
:101C30005FFB00940324694609480194FEF7C6FB44
:101C400008B1FEF755FBCDE9004669460448FEF7AA
:101C5000BDFB002801D0FEF74BFBFEBD0024014078
:101C600040000020094808B5416941F00101416187
:101C70004069002200F00100009011460B20FFF7A0
:101C800071F8BDE808400B20FFF75EB80010024075
:101C90000D4808B5816941F010018161816901F049
:101CA00010010091816941F020018161816901F099
:101CB00020010091816941F004018161806900F097
:101CC0000400009008BD00000010024010B586B06E
:101CD00000241648009401940294039404944FF055
:101CE00080410594016041F61F41C0E90114C721FC
:101CF000C0E903148461FFF7E5FB08B1FEF7F8FAC9
:101D00004FF48050009069460848FFF751FC08B135
:101D1000FEF7EEFA049404A904480594FFF79EFB2D
:101D2000002801D0FEF7E4FA06B010BDB400002090
:101D30000C4810B50A4901604FF4E13141600021BF
:101D400081600C22C160C0E904128161C161FFF7AA
:101D50007DFE002803D0BDE81040FEF7C9BA10BDD3
:101D600000380140FC000020FEE7FEE770477047A6
:101D7000FEF792BF30B593B028216846FEF7DBF935
:101D800014210AA8FEF7D7F9002501200F95109518
:101D90001195010412958DE8230004904FF4E01092
:101DA000CDE90810022407946846FFF7B1F908B19D
:101DB00072B6FEE70AA90F2081E831004FF4806077
:101DC000CDE90D0502210AA8FFF7C6F808B172B6E1
:101DD000FEE74FF4004011900F940FA8FFF746F86C
:101DE000002801D072B6FEE713B030BD7047000086
:101DF0000148FFF74CBC0000B4000020F0B50268B9
:101E0000194B1A4C1A4D4FF08047984205D0B842F2
:101E100003D0A04201D0A84203D122F070064A6844
:101E20003243984205D0B84203D0A04201D0A84224
:101E300003D122F44074CA6822434C6922F0800224
:101E4000224302608A68C2620A688262984201D1B3
:101E500009690163012141610169C90703D0016971
:101E600021F001010161F0BD002C0140000400409F
:101E70000008004010B5846842EA032224F47F443D
:101E80000A432243826010BD826822F070020A4336
:101E900042F007018160704710B5036A046A24F0BC
:101EA00001040462846924F0F00444EA021423F07B
:101EB0000A020A438461026210BD10B5036A046A13
:101EC00024F010040462846923F0A00324F4704415
:101ED00044EA023243EA01118261016210BD10B589
:101EE000406A0021C185C184FFF778FC10BD0168FC
:101EF0000C3151E8002F22F4907241E80023002BAE
:101F0000F5D10168143151E8002F22F0010241E8B7
:101F10000023002BF5D1016B012909D101680C3197
:101F200051E8002F22F0100241E80023002BF5D1E8
:101F3000202180F8421000210163704708B590F815
:101F40004210222901D0022008BD82684FF480533C
:101F50009A4201D1016921B1816A9A421BD04AB1EA
:101F60000AE00268816A5268C2F308020A80816A44
:101F7000891C08E0026972B10268526802F07F02AF
:101F80000A70816A491C8162C18D491E0904090CCD
:101F9000C18503D01BE002685268F1E70168CA6896
:101FA00022F02002CA600168CA6822F48072CA6006
:101FB00001684A6922F001024A61202180F842103A
:101FC00000214163026B012A03D0FFF7B1FD00201D
:101FD00008BD016301680C3151E8002F22F01002A6
:101FE00041E80023002BF5D101680A68D20602D52A
:101FF0000A6849680091818DFFF7EFFBE7E7000071
:1020000070B5044600680169E26821F4405111434B
:1020100001612169A0680843616908432168CA68B1
:1020200041F20C639A430243CA6020684169A26985
:1020300021F44071114341611E492068884202D158
:10204000FFF730F801E0FFF71DF800EBC00101EBEE
:102050000012606864218000B2FBF0F3B3FBF1F37F
:102060006FF018067343B2FBF0F5B2FBF0F605EB28
:102070008305322303EB0515B5FBF1F5B6FBF1F64D
:1020800005F0F00505EB0615B2FBF0F6B2FBF0F03B
:10209000B0FBF1F06FF01802504306EB800003EB49
:1020A0000010B0FBF1F0216800F00F0028448860B8
:1020B00070BD0000003801402DE9F84398461746EE
:1020C0000D460446089E24E0701C22D0FEF7DEFD7B
:1020D000A0EB0800B0421AD8CEB12068C168490709
:1020E00017D5802D15D0402D13D00168C94309079D
:1020F0000FD401680025406800902046FFF7F7FEE6
:102100000820606484F840500120BDE8F883032073
:10211000FBE72068006835EA000004D00020B842E0
:10212000D2D00020F1E70120F9E700000148FFF7D5
:1021300057BB0000FC000020FEE70907090E00283D
:1021400004DB00F1E02080F80014704700F00F007D
:1021500000F1E02080F8141D704702E008C8121F4B
:1021600008C1002AFAD170477047002001E001C180
:10217000121F002AFBD17047034610B5002002460B
:1021800002E09C5C6040521C8A42FADB10BDA0F564
:102190000061A0F2CF70632800D200214FF42F70AD
:1021A0004143C81701EB5050C0127047FEF77CFD49
:1021B000FFF7E0FDFFF76CFDFFF754FDFFF70CFDA7
:1021C000FFF7B6FDFFF782FD00F042F81A48FEF770
:1021D00091F8042219491848FEF750FA1848FFF7F9
:1021E000BBF9164E0027B61E4FF0AA08154C4FF04B
:1021F0005509154D4FF4967A00F03CF83088B8B187
:1022000084F8008084F80190288860806888A08025
:10221000A888E080E88820810A210A48FFF7ACFFFF
:10222000A0720A230B2207490848FFF782FC378077
:102230005046FEF729FCDFE7400000200A0000209E
:10224000B40000203400002000000020FC0000202A
:10225000074900224FEA02004A800A80CA808A8029
:1022600001EB4003401C1A810428F9DB7047000091
:10227000240000203FB51B4A1088FFF788FF00901C
:102280005088FFF784FF01909088FFF780FF02904D
:10229000D088FFF77CFF0390134900206C4600BFF5
:1022A00001EB400354F82050B3F90820401C02EB26
:1022B00042022A44D51702EB957292101A81042823
:1022C000EEDB0D890D804C894C808A898A80074B12
:1022D000B1F90E00C8801D805C809A8000F008F87B
:1022E000D8803FBD0A00002024000020000000200C
:1022F0004FF42F71002801DA002002E0884200DD4F
:1023000008464FF47A72504390FBF1F07047010297
:1023100002030405060708090A0B0C0D0E0F101026
:10232000010202030405060708090A0B0C0D0E0F33
:102330001010000000000000000001020304060766
:102340000809000000000102030400006C230008DB
:1023500000000020240000005A21000890230008FB
:1023600024000020240500006A210008000000006D
:10237000000000000000000000000000000000005D
:1023800001000000100000000000000000127A00B0
:04000005080000ED02
:00000001FF
