:020000040800F2
:10000000F809002089010008431C00080D1A0008A7
:10001000411C0008FF030008B52A0008000000008A
:10002000000000000000000000000000491D000862
:100030000D04000800000000451C00080927000806
:10004000A3010008A3010008A3010008A301000800
:10005000A3010008A3010008A3010008A3010008F0
:10006000A3010008A3010008A3010008A3010008E0
:10007000A3010008A3010008A3010008010400086F
:10008000A3010008A3010008A3010008A3010008C0
:10009000A3010008A3010008A3010008A3010008B0
:1000A000A3010008A3010008A3010008A3010008A0
:1000B0006D270008A3010008A3010008A3010008A0
:1000C000A3010008A3010008A3010008A301000880
:1000D000A3010008A92A0008A3010008A301000841
:1000E000A3010008A3010008A301000800F002F822
:1000F00000F03AF80AA090E8000C82448344AAF188
:100100000107DA4501D100F02FF8AFF2090EBAE885
:100110000F0013F0010F18BFFB1A43F0010318473B
:10012000A0360000C0360000103A24BF78C878C15D
:10013000FAD8520724BF30C830C144BF04680C60ED
:10014000704700000023002400250026103A28BF35
:1001500078C1FBD8520728BF30C148BF0B60704739
:100160001FB51FBD10B510BD00F010F91146FFF707
:10017000F7FF02F02FFD00F02EF903B4FFF7F2FFB6
:1001800003BC00F035F900000948804709480047E2
:10019000FEE7FEE7FEE7FEE7FEE7FEE7FEE7FEE737
:1001A000FEE7FEE704480549054A064B7047000094
:1001B0006B270008ED000008F8030020F809002074
:1001C000F8050020F805002010B5431C02E010F8E7
:1001D000011B71B18107FAD14FF0013202C88C1AAC
:1001E0008C4314EAC211F9D0C01A0A0603D0C01E0B
:1001F00010BDC01A10BD0A0401D0801E10BD090236
:10020000FCD0401E10BD032A40F2308010F0030CD9
:1002100000F0158011F8013BBCF1020F624498BF59
:1002200011F801CB00F8013B38BF11F8013BA2F1F6
:10023000040298BF00F801CB38BF00F8013B11F071
:10024000030300F07180083AC0F0088051F8043BC5
:10025000083A51F804CBA0E80810F5E7121D5CBF7E
:1002600051F8043B40F8043BAFF30080D20724BFB1
:1002700011F8013B11F801CB48BF11F8012B24BF45
:1002800000F8013B00F801CB48BF00F8012B704794
:100290004FF000020429C0F0128010F0030C00F0AF
:1002A0001B80CCF1040CBCF1020F18BF00F8012B2D
:1002B000A8BF20F8022BA1EB0C0100F00DB85FEAFB
:1002C000C17C24BF00F8012B00F8012B48BF00F8C7
:1002D000012B70474FF0000200B513469446964636
:1002E000203922BFA0E80C50A0E80C50B1F1200149
:1002F000BFF4F7AF090728BFA0E80C5048BF0CC0F7
:100300005DF804EB890028BF40F8042B08BF704754
:1003100048BF20F8022B11F0804F18BF00F8012BC6
:10032000704770477047704710B5203AC0F00B8097
:10033000B1E81850203AA0E81850B1E81850A0E8E9
:100340001850BFF4F5AF5FEA027C24BFB1E8185043
:10035000A0E8185044BF18C918C0BDE810405FEAB3
:10036000827C24BF51F8043B40F8043B08BF70472F
:10037000D20728BF31F8023B48BF11F8012B28BF34
:1003800020F8023B48BF00F8012B7047754600F08B
:100390002BF8AE4605006946534620F00700854617
:1003A00018B020B5FFF7FEFEBDE820404FF0000674
:1003B0004FF000074FF000084FF0000B21F007014D
:1003C000AC46ACE8C009ACE8C009ACE8C009ACE890
:1003D000C0098D46704710B50446AFF30080204633
:1003E000BDE81040FFF7C9BE0048704798030020E1
:1003F00001491820ABBEFEE7260002007047FEE769
:10040000014800F075B80000E4010020704772B6A2
:10041000FEE710B590F821100022022905D0042132
:10042000816380F82020012010BD01680B6823F053
:100430000E030B6001680B6823F001030B6090F85A
:100440004030C46B012101FA03F3636080F821108E
:1004500080F82020104610BD10B590F8211000241F
:10046000022903D00421816301243DE001680A6868
:1004700022F00E020A6001680A6822F001020A6096
:100480001A4A0168914201D1012121E0174A143230
:10049000914201D110211BE0144A2832914201D12E
:1004A000891515E0114A3C32914201D189140FE0BF
:1004B0000E4A5032914202D14FF4803108E00B4A8B
:1004C0006432914202D14FF4801101E04FF080710B
:1004D000064A083A5160012180F82110002180F875
:1004E0002010416B01B18847204610BD0800024032
:1004F0002DE9F05FC16B0C6801680B68D0F840C053
:10050000042202FA0CF2494DDFF824A1494E4A4F69
:10051000DFF828B1DFF828E122422CD05A072AD58B
:100520000A68920603D40A6822F004020A6001688D
:10053000A94201D1042219E0514501D1402215E020
:10054000B14202D14FF4806210E0B94202D14FF4BF
:1005500080420BE0594502D14FF4802206E07145FC
:1005600002D14FF4800201E04FF080622F49083938
:100570004A60C16A3BE04FF0020808FA0CF818EA3A
:10058000040F4FF000094FF0010235D05FEA837885
:1005900032D50B689B0605D40B6823F00A030B6069
:1005A00080F821200168A94201D1022219E05145B9
:1005B00001D1202215E0B14202D14FF4007210E0C7
:1005C000B94202D14FF400520BE0594502D14FF429
:1005D000003206E0714502D14FF4001201E04FF005
:1005E0000072124908394A6080F82090816A002917
:1005F0001AD0BDE8F05F0847082505FA0CF525423A
:1006000012D01B0710D50B6823F00E030B6090F877
:100610004010C36B02FA01F15960826380F8212017
:1006200080F82090016BE2E7BDE8F09F08000240EF
:100630001C000240300002404400024058000240CA
:100640006C00024030B528B308C81349142219447D
:10065000B1FBF2F18900C163104981630221417746
:100660001A6843F6F0718A43D0E900142143D0E9B7
:1006700002452C4321430469214344692143846991
:100680002143114319600021416301224277017720
:10069000084630BD012030BDF8FFFDBF000002401C
:1006A00070B5044600F004F90546601C02D0044809
:1006B0000078044400F0FCF8401BA042FAD370BD5F
:1006C0005C0000202DE9F84FDFF8B8910024A9F173
:1006D000040B23460F2709F1040AABF1040EC9E00D
:1006E0000125A5402A40AA427DD1674ED1F804C019
:1006F000ACEB0608B44532D014DCBCF1030F3AD0A1
:1007000009DCBCF1000F2AD0BCF1010F1CD0BCF1F8
:10071000020F31D11DE0BCF1110F17D0BCF1120F47
:100720002AD119E0B8F5881F19D006DCB8F5803F4A
:1007300015D0B8F5801F1FD111E0B8F5001F0ED0FD
:10074000B8F5041F18D10AE0CB6815E0CB681B1D73
:1007500012E0CB6808330FE0CB680C330CE08B68F9
:100760002BB1012B4FF0080303D0456104E00423B3
:1007700002E0056100E00023FF2A01D8064601E0FF
:1007800000F104064FEA840501D9A5F12005D6F849
:10079000008007FA05FC28EA0C0803FA05F548EA88
:1007A0000508C6F800804D68ED0062D5374DAE698A
:1007B00046F00106AE61AD6924F0030605F00105BF
:1007C0000095334D06EB050CDCF80850A607360FF4
:1007D00007FA06F825EA0805DFF8B880404503D196
:1007E0004FF0000817E044E0DFF8AC80404502D14C
:1007F0004FF001080FE0DFF8A480404502D14FF030
:10080000020808E0DFF89880404502D14FF0030865
:1008100001E04FF0040808FA06F848EA0508CCF8A9
:1008200008804D68D9F80060ED024D4601D51643A9
:1008300000E096432E604D68DAF80060AD02554640
:1008400001D5164300E096432E604D68DBF800604A
:10085000AD035D4601D5164300E096432E604D681A
:10086000DEF80060ED03754601D5164300E09643BF
:100870002E60641C0D682A46E5407FF431AFBDE868
:10088000F88F000008040140000011100010024021
:100890000000014000080140000C01400010014030
:1008A000001401400AB1016170470904FBE7000030
:1008B00001488068704700005C00002002488168A1
:1008C00002781144816070475C000020074810B531
:1008D000016841F010010160032000F075F80F205D
:1008E00000F006F800F024F8002010BD00200240BF
:1008F00070B50D4D04464FF47A712878B1FBF0F0D5
:100900000A490968B1FBF0F000F066FC48B9102C08
:1009100007D200222146501E00F036F800206C60FD
:1009200070BD012070BD00005C0000206800002048
:100930000C4808B5816941F001018161816901F0CC
:1009400001010091C16941F08051C161C06900F0AD
:10095000805000900448416821F0E06141F000714E
:10096000416008BD0010024000000140002809DB82
:1009700000F01F02012191404009800000F1E020B9
:10098000C0F8001170470000F0B40E4B1B680C4615
:10099000C3F30223C3F10705042D00D90425191D53
:1009A000072901D2002300E0DB1E012606FA05F12B
:1009B000491E214099409E40761E16403143F0BCAE
:1009C00002F079B80CED00E0064900F00702086873
:1009D0004FF6FF03184040EA0220034A1043086024
:1009E000704700000CED00E00000FA052DE9F0472B
:1009F0000F46050061D0434E306800F00700B84252
:100A000009D2306820F0070038433060306800F0C9
:100A10000700B84251D128683B4C810712D54007E6
:100A200003D5606840F4E06060602878000703D573
:100A3000606840F4605060606068A96820F0F00071
:100A4000084360602878C00728D06868012810D063
:100A50002168022810D0890700292EDA616821F068
:100A6000030101436160FFF723FF804641F28839AB
:100A70000DE021688903EFE78901EDE7FFF718FF33
:100A8000A0EB0801494502D90320BDE8F087606862
:100A9000696800F00C00B0EB810FEFD1306800F016
:100AA0000700B8420BD9306820F0070038433060A7
:100AB000306800F00700B84201D00120E5E728784F
:100AC000400705D56068E96820F4E060084360608D
:100AD0002878000706D56068296920F4605040EA4C
:100AE000C100606000F038F86168084AC1F3031182
:100AF000515CC8400649086006480068FFF7F8FEE8
:100B00000020C2E70020024000100240A637000883
:100B1000680000206000002004480549006849681A
:100B2000044AC1F30221515CC840704768000020AC
:100B300000100240B63700080448054900684968BB
:100B4000044AC1F3C221515CC840704768000020CC
:100B500000100240B63700080E4A51680E4801F0F6
:100B60000C03042B11D0082B0FD10C48C1F3834385
:100B7000C903C05C0AD55168084AC1F34041921EBE
:100B8000515C054A5043B0FBF1F0704704494843BB
:100B9000704700000010024000127A0096370008EB
:100BA00000093D002DE9F84F040070D02078C04DB9
:100BB000C00749D06868C0F38100012807D0686881
:100BC000C0F38100022809D16868C00306D52868EF
:100BD000800339D560680028E7D035E06068B0F55B
:100BE000803F0BD010B1B0F5A02F11D0286820F4B1
:100BF00080302860286820F4802002E0286840F4D3
:100C000080302860606890B1FFF752FE06460AE027
:100C1000286840F480202860F0E700BFFFF748FE16
:100C2000801B642873D828688003F7D50CE0FFF791
:100C30003FFE064605E000BFFFF73AFE801B642832
:100C4000F0D828688003F7D420789A4E80074FF0B8
:100C500001094FF0000839D5686810F00C0F07D073
:100C60006868C0F38100022809D16868C00306D40F
:100C70002868800714D52069012808D110E0206970
:100C8000B0B1C6F80090FFF713FE074605E00AE191
:100C9000FFF70EFEC01B0228C4D828688007F7D5CE
:100CA0002868616920F0F80040EAC10028600DE082
:100CB000C6F80080FFF7FCFD074604E0FFF7F8FDEB
:100CC000C01B022823D828688007F7D420780007A3
:100CD0002CD57948A169D9B1C0F80090FFF7E8FD9B
:100CE000074604E0FFF7E4FDC01B02280FD8686A3E
:100CF0008007F7D571484FF4FA510068B0FBF1F066
:100D0000009000BF0098411E0091FAD20EE080E0F2
:100D1000C0F80080FFF7CCFD074604E0FFF7C8FDF0
:100D2000C01B022875D8686A8007F7D4207840076E
:100D300060D5E8690027C00008D4E86940F0805019
:100D4000E861E869012700F0805000905C48016884
:100D5000C90513D40168834641F480710160FFF72F
:100D6000A7FD824606E000BFFFF7A2FDA0EB0A0048
:100D700064284ED8DBF80000C005F5D5E0680128EE
:100D80000AD008B1052813D0286A20F00100286293
:100D9000286A20F0040002E0286A40F0010028627E
:100DA000E06841F2883B98B1FFF782FD82460BE094
:100DB000286A40F004002862EEE700BFFFF778FDE4
:100DC000A0EB0A0159455AD8286A8007F6D50CE0ED
:100DD000FFF76EFD824605E0FFF76AFDA0EB0A0112
:100DE00059454CD8286A8007F6D41FB1E86920F02D
:100DF0008050E861E06988B36968C1F38101022924
:100E000044D00228C6F8608004D0FFF751FD0446A4
:100E100038E034E0FFF74CFD074604E0FFF748FDFB
:100E2000C01B02282BD828688001F7D4206AB0F5AF
:100E3000803F05D16868A16820F4003008436860ED
:100E4000D4E908010843696821F474110843686013
:100E5000C6F86090FFF72CFD044606E025E000BFD1
:100E6000FFF726FD001B022809D828688001F7D566
:100E70001BE000BFFFF71CFD001B022802D9032066
:100E8000BDE8F88F28688001F4D40EE00128F7D07F
:100E90006868226A00F48031914204D1616A00F4EA
:100EA0007010884201D00120EAE70020E8E7000046
:100EB00000100240000042428004424268000020CC
:100EC0000070004070B5040009D0606A002540B190
:100ED00025616561A56294F8510040B10CE00120E4
:100EE00070BD6068B0F5827FF4D0E561F2E784F808
:100EF0005050204600F040F8022084F8510020684D
:100F0000016821F040010160A088218900F482700D
:100F100001F404410843A18901F400610843217CE4
:100F200001F002010843217D01F001010843218BFA
:100F300001F400710843217F01F03801084394F85F
:100F4000201001F080010843218D01F40051084375
:100F500021680860A069042101EA10402168486006
:100F60002068C16921F40061C1616565012084F8D0
:100F70005100002070BD000030B585B00024009401
:100F800001940294039400681449884223D11448C0
:100F9000816941F480518161816901F4805104913A
:100FA000816941F00401816180690E4D00F0040007
:100FB0000490A02000900220019003200390694635
:100FC0002846FFF77FFB4020CDE90004694628460C
:100FD0000294FFF777FB05B030BD00000030014000
:100FE00000100240000801402DE9FF4F81B01D466E
:100FF000934604464FF001090E9EFFF759FC074641
:1010000094F851006168012806D0B1F5827F3CD187
:10101000A168C9BB042838D10298002871D0BBF15F
:10102000000FFBD0002DF9D094F8500001282CD0EF
:101030004FF0010A84F850A094F85100042802D01F
:10104000052084F851004FF00008C4F85480C4F81B
:1010500038B0E587A58702992163E586A586C4F89F
:101060004080C4F8448020680168490603D40168C0
:1010700041F040010160E068B0F5006F606808D0A1
:10108000F0B3012D49D081E0FFE7022005B0BDE8B3
:10109000F08F08B1012D39D1206B21680088C8601C
:1010A000206B801C2063E08E401EE0862EE02068CE
:1010B000816889070FD5E18E69B1B9F1010F0AD1B5
:1010C000216B0988C160206B801C2063E08E401E6C
:1010D000E0864FF0000920688168C9070CD0E18FD5
:1010E00051B1C068A16B0880A06B801CA063E08F29
:1010F000401EE0874FF00109FFF7DAFBC01B01E05B
:101100000BE067E0B04201D3701C50D1E08E0028A4
:10111000CDD1E08F0028CAD13EE0206B2168007855
:101120000873206B401C2063E08E401EE0862DE09B
:101130002068816889070FD5E18E69B1B9F1010F87
:101140000AD1216B09780173206B401C2063E08E6B
:10115000401EE0864FF0000920688168C9070CD066
:10116000E18F51B1C068A16B0870A06B401CA063F7
:10117000E08F401EE0874FF00109FFF799FBC01B8D
:10118000B04202D3701C01D011E086B1E08E00287D
:10119000CED1E08F0028CBD13A463146204600F030
:1011A0005DFD50B12020606584F8508012E084F825
:1011B00051A084F85080032068E7A06818B920681F
:1011C000C1688068009084F851A084F85080606DF8
:1011D0000028F1D0012059E710B5401EB0F1807F02
:1011E00001D3012010BD4FF0E02460610F21601792
:1011F00001F061FC0020A06107202061002010BDEB
:101200007047704770B590F83C20012A26D0012421
:1012100080F83C40022280F83D2003685A689D68AF
:1012200022F070060A6832435A600D4B02689A42F7
:1012300008D0B2F1804F05D00A4B9A4202D00A4B37
:101240009A4204D1496825F080031943916080F8DF
:101250003D40002180F83C10084670BD022070BD62
:10126000002C0140000400400008004010B50400BC
:1012700003D094F83D0010B107E0012010BD00201C
:1012800084F83C00204600F01FF8022084F83D005E
:10129000211D206801F070FA012084F8460084F8CE
:1012A0003E0084F83F0084F8400084F8410084F850
:1012B000420084F8430084F8440084F8450084F830
:1012C0003D00002010BD000008B50068B0F1804F5F
:1012D00012D10A48C16941F00101C161C06900220F
:1012E00000F00100009011461C20FFF74DFBBDE807
:1012F00008401C20FFF73ABB08BD00000010024068
:1013000090F83D10012901D001207047022180F89A
:101310003D100168CA6842F00102CA6000680B49CA
:10132000884208D0B0F1804F05D00949884202D0E8
:101330000849884204D1816801F00701062903D0D9
:10134000016841F00101016000207047002C01405C
:10135000000400400008004070B5044690F83C00CE
:101360000025012817D0012684F83C60022084F86B
:101370003D002068826822F0770222F47F4282607A
:101380000868502838D00DDC20284FD005DC90B3F9
:10139000102811D14AE0022070BD302846D04028E4
:1013A0000AD13BE060282FD070280DD0B0F5805FC7
:1013B00003D0B0F5005F12D0012584F83D60002015
:1013C00084F83C00284670BDCB68D1E90121206833
:1013D00001F00EFA2068816841F0770109E0CB68DE
:1013E000D1E90121206801F003FA2068816841F405
:1013F00080418160E1E719E0CA684968206801F02E
:1014000009FA5021206806E0CA684968206801F09E
:1014100012FA6021206801F0F5F9CEE7CA68496840
:10142000206801F0F7F940212068F4E722680146BE
:101430001046F0E770472DE9F04104460068C668A1
:1014400005694FF00007A90713D5B10711D5F91E9B
:10145000016101202077206880698007204602D042
:10146000FFF7E8FF04E000F07EF8204600F07CF88B
:101470002777680716D5700714D521686FF0040028
:101480000861022020772068806910F4407F2046A0
:1014900002D0FFF7CFFF04E000F065F8204600F02F
:1014A00063F82777280715D5300713D521686FF023
:1014B00008000861042020772068C0698007204662
:1014C00002D0FFF7B7FF04E000F04DF8204600F02F
:1014D0004BF82777E80616D5F00614D521686FF08B
:1014E00010000861082020772068C06910F4407F50
:1014F000204602D0FFF79EFF04E000F034F82046BB
:1015000000F032F82777E80708D0F00706D0216806
:101510006FF001000861204600F028F8280608D581
:10152000300606D521686FF0800008612046FFF77D
:1015300067FE680608D5700606D521686FF0400082
:101540000861204600F026F8A8060AD5B00608D59E
:1015500021686FF0200008612046BDE8F041FFF7E8
:1015600050BEBDE8F08170477047000010B50068BC
:10157000B0F1804F08D10549054801F097FBBDE85F
:101580001040024801F0CEBB10BD00009A000020C0
:10159000080000207047704770470000F8B50168E8
:1015A00004460868CA684B6910F00F0F4FF0000539
:1015B00059D003F0010602F49077374365D0C10794
:1015C00005D0D10503D5616C41F00101616441078B
:1015D00005D5D90703D0616C41F002016164810730
:1015E00005D5D90703D0616C41F00401616401079E
:1015F00007D502F02001314303D0616C41F00801AE
:101600006164616C00293AD0800604D5900602D549
:10161000204601F051F920684069616CC0F38010E8
:10162000090700D460B3204601F01FF92068406923
:10163000400621D52068143050E8001F21F04001F9
:1016400040E80012002AF5D1E06BA8B16D49416372
:10165000E06BFEF701FF002811D0E06B416B01B099
:10166000BDE8F040084783060FD593060DD5204608
:10167000BDE8F84001F020B92046FFF78DFFF8BD26
:101680002046FFF789FF6564F8BD266B2023012EF5
:101690007CD1C6067AD5D60678D508684868009009
:1016A00048694FF00206400640D5E16B0868406883
:1016B0000004000CE8D0A28D8242E5D9E08588695B
:1016C00020282DD020680C3050E8001F21F48071B4
:1016D00040E80012002AF5D12068143050E8001FBD
:1016E00021F0010140E80012002AF5D120681430F1
:1016F00050E8001F21F0400140E80012002AF5D117
:1017000084F84230256320680C3050E8001F21F037
:10171000100140E80012002AF5D1E06BFEF779FED7
:101720006663A08DE18D401A81B22AE0A08DE18D23
:10173000401A81B2E08D0028A6D00029A4D02268EA
:101740000C3252E8000F20F4907042E80007002F9E
:10175000F5D12068143050E8002F22F0010240E853
:101760000027002FF5D184F84230256320680C3023
:1017700050E8002F22F0100240E80023002BF5D1A2
:1017800066632046FFF707FFF8BDFFE705062BD588
:10179000150629D594F841002128F5D1A068B0F5A7
:1017A000805F01D12069B0B1206A411C21622168AB
:1017B00000784860E08C401E0004000CE084E3D117
:1017C0002068C16821F08001C1602068C16841F0D3
:1017D0004001C160D8E7206A0088C0F30800486073
:1017E000206A801C2062E5E74006CDD55006CBD5A7
:1017F000CA68204622F04002CA6084F8413000F0F6
:1018000004F9C1E75B28000870B5040004D094F81F
:101810004100002510B106E0012070BD84F8405061
:10182000204600F023F8242084F841002068C16895
:1018300021F40051C160204601F0A0F82068016940
:1018400021F4904101612068416921F02A01416140
:101850002068C16841F40051C1606564202084F8AB
:10186000410084F842006563002070BDF0B585B08A
:10187000002400940194029403940646344F0368B4
:10188000344902200322344DBB423CD18B6943F4DE
:1018900080438B618B6903F4804304938B6943F02D
:1018A00004038B618969039201F004010491010230
:1018B000CDE9001069462846FEF704FF2815CDE95A
:1018C0000004694628460294FEF7FCFE244D234896
:1018D000C5E900048020C5E902402C616C61AC615F
:1018E0002846EC61FEF7AEFE08B1FEF790FDF56309
:1018F0000022114625206E62FFF746F82520FFF7EB
:1019000035F805B0F0BD174EB342FAD1CB6943F4B8
:101910000033CB61CB6903F4003304938B6943F04C
:1019200004038B618969039201F00401049104218D
:10193000CDE9001069462846FEF7C4FE0820CDE92F
:101940000004694628460294FEF7BCFED9E7000071
:1019500000380140001002400008014058000240D9
:10196000E40100200044004070472DE9F84304469C
:1019700090F84100984616460D46202802D00220D5
:10198000BDE8F88385B17EB100206064212084F831
:101990004100FEF78DFFA6848146E684A0682027DB
:1019A000B0F5805F02D003E00120E9E7206910B1C3
:1019B0002E4600250EE000260CE08021204601F096
:1019C00039F8A8B9C6B116F8010B21684860E08C57
:1019D000401EE084E08C4B464FF00002CDF80080C2
:1019E0000028EAD14FF04001204601F023F840B131
:1019F00084F841700320C3E735F8020BC0F30800F8
:101A0000E3E784F841700020BAE77047FEE7000082
:101A1000094808B5416941F001014161406900226E
:101A200000F00100009011460F20FEF7ADFFBDE869
:101A300008400F20FEF79ABF001002402DE9F04346
:101A400085B0002430480094019402940394816985
:101A500041F010018161816901F0100104918169F7
:101A600041F020018161816901F0200104918169C7
:101A700041F004018161816901F0040104918169EF
:101A800041F0080181618069204F00F008004FF4A7
:101A900000550490002229463846FEF703FFDFF880
:101AA0007080002210214046FEF7FCFEDFF86490B3
:101AB000002201214846FEF7F5FE00950226012589
:101AC0000396CDE9015469463846FEF7FBFD102028
:101AD0000327CDE90005CDE9024769464046FEF7F8
:101AE000F1FD03970095CDE9015469464846FEF79C
:101AF000E9FDCDE90064694648460294FEF7E2FD3F
:101B000005B0BDE8F0830000001002400010014065
:101B100000080140000C0140104810B50E4901605A
:101B20004FF48271416000218160C1604FF4007206
:101B30000161C0E905121022C0E9072141628162FA
:101B40000A21C162FFF7BEF9002803D0BDE81040AA
:101B5000FEF75DBC10BD000000300140B400002065
:101B600010B586B0002416480094019402940394A2
:101B700004944FF080410594016048F69F41C0E90C
:101B800001140D21C0E903148461FFF76FFB08B154
:101B9000FEF73DFC4FF48050009069460848FFF77F
:101BA000DBFB08B1FEF733FC049404A90448059458
:101BB000FFF728FB002801D0FEF729FC06B010BD76
:101BC0000C0100200C4810B50A4901604FF4E131C6
:101BD0004160002181600C22C160C0E90412816172
:101BE000C161FFF711FE002803D0BDE81040FEF7E9
:101BF0000EBC10BD00380140540100200E4810B545
:101C00000C4901600D4941604FF4805181604900E9
:101C1000C160C91001610821416100218161C16178
:101C2000FFF7F2FD002803D0BDE81040FEF7EFBB40
:101C300010BD0000004400409C010020A08601006F
:101C4000FEE7FEE77047000010B500F081F802499A
:101C50000020C87010BD000010000020F8B5154627
:101C60000E460B46009204460122022100F010F8B5
:101C700040B93346002280212046009500F008F844
:101C8000002804D0606D40F0200060650320F8BD9E
:101C90002DE9F8431E46914688460446089DFEF706
:101CA00007FE401B351AFEF703FE0746254800686D
:101CB000C0F3CB30684338E0701C37D0FEF7F8FD36
:101CC000C01BA84203D215B1009860B32CE0206875
:101CD000416821F0E00141606068B0F5827F0BD17E
:101CE000A068B0F5004F02D0B0F5806F04D1206835
:101CF000016821F040010160A06AB0F5005F09D1E0
:101D00002068016821F4005101602068016841F4F5
:101D100000510160012084F85100002084F8500037
:101D20000320BDE8F8830025401E009020688168EC
:101D300038EA010004D000214945BDD10020F0E778
:101D40000121F9E768000020704700F01FB800008B
:101D500010B5094C07482062606200F00FF800F0EF
:101D600010FC0120207100F01BFCBDE8104000F0C9
:101D700019B80000280200201000002001221021C4
:101D80000148FEF78FBD000000080140034B9A890F
:101D90000A80002199810249FEF735BA100000201F
:101DA0009802002070B52A4C0020A07000F010FAB4
:101DB000284D6F22691C012000F0BCFB616A2020C5
:101DC0006F220873691C012000F04CFC6F22691C13
:101DD000012000F0AFFB3034206800F0DFFAA0797A
:101DE00000F05EFBE07900F0FBF9207A00F0AEFA3B
:101DF000607900F03DFB607A00F00CFA40F2FF30B1
:101E000000F076FB207E00F0B9FA012000F01AFA0B
:101E10006F22691C012000F08DFB0F492068884269
:101E200007D9002000F05AFA002000F06DFA0E20C9
:101E300006E0802000F052FA012000F065FA14203C
:101E4000207100F0C9FABDE87040012000F028BA06
:101E50001000002028020020008F42332DE9F84FA7
:101E6000D34C0126DFF84C93A0780027B0464FF002
:101E7000E02A04F13005092870D2DFE800F06F0590
:101E8000387BFDFCFBFAF900012000F009FA606ADA
:101E90009D214174112000F0DFFBE87A012815D064
:101EA000616AFF2081F82400606A90F824102420E1
:101EB00000F0D2FB062000F0F3F94FF48071BE4829
:101EC000FEF7E6F900F0F6FB02205EE1616A287B8E
:101ED00081F824001C201C3100F028FB606A007F80
:101EE00000F03F0159F8210000F058FADCE7B04952
:101EF0001220491C00F01AFB6078400616D5677066
:101F0000E87A01280CD1616A1C201C3100F00EFB1C
:101F1000606A007F00F03F0159F8210000F03EFAAE
:101F20004021122000F098FB0320A0706078800709
:101F300015D56770E87A01280CD1616A1C201C3124
:101F400000F0F4FA606A007F00F03F0159F82100C8
:101F500000F024FA0221122000F07EFB24E16770D9
:101F6000DAF81000A061FEF7A3FC21698842F5D3DE
:101F700004200AE1616A1220123100F0D7FA606A87
:101F8000807C800606D52021122000F065FB84F8B5
:101F9000028009E16946192000F0C8FA9DF80000A6
:101FA000010605D5C043401CC0F38500404200E057
:101FB0008008207281492868DFF8F8918842DFF8AC
:101FC00000A2DFF800B294F90800A9F1500922D26A
:101FD000002813DA01F0EBF80F466979064609EBA1
:101FE000C1010022D1E90001534601F00BF90022A2
:101FF0005B4600F0AFFE0022734B21E0616A1A20BD
:102000001A3100F093FA606A807E01F0E7F8694BBC
:102010006A79F03B25E0002817DA01F0C8F80F468E
:102020006979064609EBC1010022D1E90001534656
:1020300001F0E8F800225B4600F08CFE0022634BC2
:1020400000F088FE32463B460FE0616A1A201A31E2
:1020500000F06CFA606A807E01F0C0F8554B6A7936
:10206000A03B03EBC203D3E9002300F073FE04E0BE
:1020700094E08CE06CE022E01DE0C4E90A01606AB3
:10208000C17B41730D2000F0E7FA687A01280ED079
:10209000616A1320133100F049FA606AC17CA181A2
:1020A000454800F069FA84F8028002267CE0606A04
:1020B00090F82210F3E784F80280032674E00120F0
:1020C00000F0EEF8E87A01282FD0606AF721417419
:1020D00080F82470606A90F82410242000F0BCFA84
:1020E000606A417C112000F0B7FA606AA17A80F83A
:1020F0002210222000F0B0FA606A394687730E2061
:1021000000F0AAFA606A817B41730D2000F0A4FA06
:10211000606A90F82210284800F0C6FA032000F008
:10212000BFF800F0D3FA06202FE0616AF52048746A
:10213000287B81F824001C201C3100F0F7F9606A2C
:10214000007F00F03F0159F8210000F027F9C1E7B6
:1021500017491220491C00F0E9F96078000706D5FC
:1021600067700821122000F077FA0720A0706078CD
:1021700080073FF5DEAE6770DAF81000E061FEF729
:1021800097FB616988420FD30820A0700CE0012002
:1021900000F086F884F80280042605E0012000F0B3
:1021A0007FF884F8028005263046BDE8F88F0000ED
:1021B00010000020C836000898020020008F42332B
:1021C0000000244000C065C000001040000018401E
:1021D0000248416A4220413100F0A8B910000020B5
:1021E00070B50B4D04461D20696A1D3100F09EF943
:1021F000686A417F01F0F10141EA4401C9B24177C7
:102200001D2000F029FA05F13000C47170BD0000F6
:102210001000002070B50A4D04461D20696A1D316A
:1022200000F084F9686A417F01F0FE0121434177A3
:102230001D2000F011FA05F13000447270BD00005D
:102240001000002070B50A4D04462620696A263128
:1022500000F06CF9686A10F8261F01F0F70141EAF6
:10226000C4010170BDE87040262000F0F5B90000FF
:102270001000002070B5094D04463120696A3031E4
:1022800000F054F9686A10F8301F01F0F80121439A
:102290000170BDE87040312000F0DEB91000002070
:1022A0000D4A30B4536A00215C7824F0F80595712A
:1022B000A8420ED0032800D10121D579A94200D02F
:1022C000D17104F0F8010143597030BC012000F0D5
:1022D000C3B930BC704700001000002070B5094D34
:1022E00004460920696A093100F020F9686A417AD8
:1022F00001F07F0121434172BDE87040092000F0E8
:10230000ABB900001000002070B50F4C05464D2001
:10231000616A4C3100F00AF9616A0920093100F064
:1023200005F9616A487A00060BD51DB15FF0870098
:1023300081F84C0091F84C10BDE870404D2000F041
:102340008BB98420F4E700001000002070B50A4D1E
:1023500004461E20696A1E3100F0E8F8686A817F31
:1023600001F0FB0141EA840181771E2000F074F93D
:1023700005F13000047270BD1000002010B5044655
:1023800005482146406A80F82240222000F064F986
:1023900001483030047610BD100000200C4910B503
:1023A000086000F01BFF00220A4B00F07BFD00F0EC
:1023B000D1FE0749020C3039496A01F8062F020A9A
:1023C0004A7088700322BDE81040062000F04AB928
:1023D0004000002080844E4070B5244D0446092002
:1023E000696A093100F0A2F8696A4D204C3100F0A9
:1023F0009DF8686A417A0A0629D590F84C30872200
:102400009A4303D0022C0EDA02240FE0052C01DAE5
:10241000052402E0142C00DD142401F0F00141F049
:102420007001621F07E0112C00DD112401F0F001A2
:1024300041F07001A21E02F00F0211434172C9B2B5
:10244000092000F009F909483030047170BD4FF0DF
:10245000FF32944201DA144602E00E2C00DD0E2415
:1024600001F0F00141F07001621CE4E7100000206F
:1024700070B50A4D04461D20696A1D3100F056F8FA
:10248000686A417F64F31F11C9B241771D2000F0D3
:10249000E3F805F13000447170BD00001000002029
:1024A00070B504460C2801D90C2408E0062C02D291
:1024B0004FF0060400E002D14FF0050001E04FF0BC
:1024C0000300FFF7D7FE094D1E20696A1E3100F098
:1024D0002DF8686A817F64F31F11C9B281771E20CD
:1024E00000F0BAF805F13000847170BD10000020D2
:1024F00070B50C4D04460222696A1E201E3100F0A0
:1025000019F8696A032202EA142211F81E0F00F07A
:10251000FC00104308704C70BDE8704002221E2081
:1025200000F0A0B810000020FFF798BC012200F0D6
:1025300001B800002DE9F0410E4F15460E46044645
:10254000002210213846FEF7ADF904F07F0000F0BC
:10255000C9F8002405E0002000F0C4F83055641CE0
:10256000E4B2AC42F7D33846BDE8F0410122102175
:10257000FEF798B9000801400A4601460020FFF71F
:10258000D9BF10B5012000F047F8012000F0E0FAB3
:10259000002000F041F8BDE81040062000F0D8BA55
:1025A00070B51B4C6179814231D060712071194D39
:1025B00000284FF0000016D0FFF772FE606A4178E5
:1025C00041F080014170012000F046F80120FFF742
:1025D00067FE616A0020022201F83F0F4870402028
:1025E00000F040F80CE0FFF75BFE606A417801F014
:1025F0007F014170012000F02FF80120FFF750FE0D
:10260000691CBDE870406F220120FFF793BF70BDC9
:10261000100000202802002010B5012812D10A4C19
:10262000002201212046FEF73DF90A20FEF738F886
:10263000012211462046FEF735F9BDE810400A2078
:10264000FEF72EB810BD0000000C0140014901202A
:10265000887070471000002013B5012201A900F016
:1026600001F81CBD2DE9F0410E4F15460E460446FB
:10267000002210213846FEF715F944F0800000F0E2
:1026800031F8002404E0305D00F02CF8641CE4B262
:10269000AC42F8D33846BDE8F04101221021FEF7E4
:1026A00001B90000000801400A4601460020FFF77A
:1026B000D9BF000010B5FEF7FBF80349496908448B
:1026C00001493039086110BD4000002010B5FEF707
:1026D000EFF803490969084401493039486110BDE0
:1026E0004000002001B582B000208DF80400642075
:1026F0000090012301AA02A90248FEF775FC9DF88B
:1027000004000EBDB4000020FEF7D8B830B58FB07D
:1027100028216846FDF7DEFD14210AA8FDF7DAFD41
:1027200001210804CDE9001000240294022504913F
:10273000CDE907504FF4E01009906846FEF732FAF1
:1027400008B172B6FEE70F20CDE90A054FF48060AC
:10275000CDE90C4002210AA80E94FEF747F90028A3
:1027600001D072B6FEE70FB030BD70470148FEF7EA
:1027700062BE00000C010020F0B50268194B1A4C33
:102780001A4D4FF08047984205D0B84203D0A0427E
:1027900001D0A84203D122F070064A683243984221
:1027A00005D0B84203D0A04201D0A84203D122F400
:1027B0004074CA6822434C6922F0800222430260BE
:1027C0008A68C2620A688262984201D1096901631B
:1027D000012141610169C90703D0016921F00101AB
:1027E0000161F0BD002C01400004004000080040E1
:1027F00010B5846842EA032224F47F440A4322434A
:10280000826010BD826822F070020A4342F0070124
:102810008160704710B5036A046A24F00104046201
:10282000846924F0F00444EA021423F00A020A4303
:102830008461026210BD10B5036A046A24F01004BA
:102840000462846923F0A00324F4704444EA023251
:1028500043EA01118261016210BD10B5406A002196
:10286000C185C184FEF798FE10BD01680C3151E8A6
:10287000002F22F4907241E80023002BF5D101686B
:10288000143151E8002F22F0010241E80023002B0F
:10289000F5D1016B012909D101680C3151E8002FF4
:1028A00022F0100241E80023002BF5D1202180F80E
:1028B000421000210163704708B590F842102229A8
:1028C00001D0022008BD82684FF480539A4201D1A2
:1028D000016921B1816A9A421BD04AB10AE00268BB
:1028E000816A5268C2F308020A80816A891C08E082
:1028F000026972B10268526802F07F020A70816A4E
:10290000491C8162C18D491E0904090CC18503D08F
:102910001BE002685268F1E70168CA6822F02002F1
:10292000CA600168CA6822F48072CA6001684A6994
:1029300022F001024A61202180F842100021416307
:10294000026B012A03D0FFF70FF8002008BD0163D6
:1029500001680C3151E8002F22F0100241E80023F9
:10296000002BF5D101680A68D20602D50A684968C9
:102970000091818DFEF70FFEE7E7000070B5044679
:1029800000680169E26821F4405111430161216945
:10299000A0680843616908432168CA6841F20C6372
:1029A0009A430243CA6020684169A26921F44071D8
:1029B000114341611E492068884202D1FEF7BCF8EC
:1029C00001E0FEF7A9F800EBC00101EB001260681E
:1029D00064218000B2FBF0F3B3FBF1F36FF0180653
:1029E0007343B2FBF0F5B2FBF0F605EB830532233F
:1029F00003EB0515B5FBF1F5B6FBF1F605F0F005B7
:102A000005EB0615B2FBF0F6B2FBF0F0B0FBF1F00F
:102A10006FF01802504306EB800003EB0010B0FB90
:102A2000F1F0216800F00F002844886070BD0000BC
:102A3000003801402DE9F843984617460D460446F4
:102A4000089E24E0701C22D0FDF732FFA0EB0800A6
:102A5000B0421AD8CEB12068C168490717D5802D79
:102A600015D0402D13D00168C94309070FD4016860
:102A70000025406800902046FFF7F7FE08206064BC
:102A800084F840500120BDE8F8830320FBE720686C
:102A9000006835EA000004D00020B842D2D00020FF
:102AA000F1E70120F9E700000148FEF777BD0000DB
:102AB00054010020FEE70907090E002804DB00F19D
:102AC000E02080F80014704700F00F0000F1E020D3
:102AD00080F8141D704700000348002101804180E8
:102AE0008180C1807047000008000020012807D0C5
:102AF000022807D0032807D0042808D104A004E046
:102B000007A002E00AA000E00DA000F013B9704792
:102B1000435243204552524F52210D0A00000000FB
:102B200048454144204552524F52210D0A000000B1
:102B30004C454E204552525052210D0A00000000D3
:102B400054595045204552524F52210D0A00000061
:102B5000FDF7A6BD10B504460078AA2802D160781A
:102B6000552801D0012010BDA078082801D00220EE
:102B700010BDE078012801D0032010BD0C212046B3
:102B800000F07CF8A189814201D0042010BD002012
:102B900010BD42680A6080684860704710B51446EE
:102BA00003460E290CD300200E3907E01A5CAA2A2E
:102BB00003D11A185278552A04D0401C8842F5D9FE
:102BC000002010BD19180E222046FDF71CFB012025
:102BD00010BD000008B5FDF779FEFFF797FDFEF781
:102BE0002DFFFEF715FFFEF7EDFFFFF707F8FEF7E5
:102BF000B7FFFEF791FFFFF727F81D48FEF780FBB0
:102C0000FFF724FD4FF4FA761A4C0125FFF78CFCF0
:102C1000022812D169461848FFF797F8164ABDF8FE
:102C200000100E3A1448FFF7B9FF30B112480E38C1
:102C3000FFF790FF60B1FFF759FFFDF739FE6168BC
:102C4000401AB0420FD902202070FFF745FFDDE7A0
:102C50000849094808310E38FFF79BFFFDF728FEA9
:102C600060602570E9E720780228CFD12570CDE794
:102C70000C010020000000207A00002070B50546FD
:102C80004FF6FF7000224AF201040BE0AB5C5840A3
:102C90000023C6074FEA500000D060405B1C082BA1
:102CA000F7DB521C8A42F1DB70BD00002DE9F043D6
:102CB000002301260F220A701D4632464FEA030CFC
:102CC00001F802C0521C192AFADB00274FF4FA69F6
:102CD0004FF47A7230F91740944201DA144602E058
:102CE0004C4500DD4C4640F26768A4F57A7404FB5D
:102CF00008F494FBF2F4AC34A4B2AC4023430B359B
:102D000004E08B55761C1B0AB6B2083DEDB2082DC7
:102D1000F7D27F1C042FDDDB81F817C081F818C0C3
:102D2000BDE8F0830A23014619220148FEF71DBEC3
:102D30009C01002010B50446FDF746FA214682B2F8
:102D4000BDE810404FF0FF330148FEF70EBE000013
:102D50005401002010B591EA030F48BF83F00043EF
:102D600000F15683841A71EB030C05D2121943EB60
:102D70000C03001B61EB0C01DFF824E14FEA115456
:102D8000A4EB135C1EEA430F18BF9EEA445F73D0A6
:102D900023EA0E03DCF1200E21EA045143F48013F0
:102DA00032D322FA0CFE10EB0E0023FA0CFE41EB9C
:102DB0000E01CCF1200E03FA0EFE10EB0E0051F1C5
:102DC0000001B1F5801FCCF1200E32D201EB04518D
:102DD00012FA0EF2BDE8104058BF7047401C38BFD1
:102DE0005FEA420218BF7047002814BF20F00100BC
:102DF00041F100014FEA410313F5001F38BF70474E
:102E0000A1F1C04100F0F6BA012A43EB0302ACF194
:102E1000200CDCF11F0E32BF4FF0000E23FA0CF332
:102E200010EB030041EB0451B4EB115FD0D0A1EBE8
:102E3000045101F5801149085FEA300001EB0451AB
:102E40000ED350F1000038BF12FA0EFE08D1BDE8D3
:102E50001040C9E7401C38BF5FEA4202CAD1C3E74D
:102E6000BDE810404FEA410313F5001F38BF70471B
:102E7000A1F1C04100F0BEBA9EEA445F08D011EA59
:102E80005E0FBDE8104004BF01F000410020704714
:102E9000BDE8104070B500F05FFA00BF64FBBE3EB5
:102EA0000000E0FF2DE9C04130B4DFF8A0C23CEAE9
:102EB000111418BF3CEA131400F0EC8081EA0305FA
:102EC0001CEA111444EAD57418BF1CEA131500F06B
:102ED000C780A4EB05044FF0004545EAC12145EA4F
:102EE000C32341EA505143EA525304F17F7499429B
:102EF00004F500344FEAC0204FEAC22208BF9042D6
:102F000000F09C804FEA13650FF24016765D4FEAA1
:102F1000134506FB05F7C7F1807706FB07F74FEA75
:102F2000D737A7FB03687642C8F58038A7FB06CEE3
:102F300038BFA8F1010807FB08E64FF0000EA6FB1A
:102F4000028CE6FB03CEDCF1000CCEF1004E38BF64
:102F5000AEF1010EA6FB0C584FF000074FF0000534
:102F6000E6FB0E87A1FB08C6A0FB07CE16EB0E06FC
:102F700045F10005E1FB076515F1E04E7EBFA4F5C4
:102F800080345FEA46066D4116F1800745F1000581
:102F90004FEA17274FEA066647EA0567A6F1DE46BD
:102FA000B6F1805F4FEA15251FD9384624F0010C91
:102FB00005EBC471BCF1FE6F01EB0C1102D8F0BC43
:102FC000BDE8008124425CBF01F5801E9EEAC47FFB
:102FD00002D4F0BCBDE80081244238D4F0BCA1F199
:102FE000C041BDE8004100F005BA4FEAD22242EAF2
:102FF00043524FEAD323A7FB02864FEAD02040EA90
:10300000415007FB03661EEA0E0F4FEAD12105FB74
:10301000026658BFA6EB0056B6EB00564FEA520EBA
:103020004EEAC37E18EB0E0E56EB530EBDD518EBD1
:1030300002085E417F1C55F10005B6E74FF480158C
:103040004FF000074FF000064FF00008ADE7F0BC6E
:103050004FF0000001F1C04101F00041BDE80081E6
:1030600011EA0C1F0CEA131500D00CE013EA0C1F38
:1030700000F025804FF00000F0BC81EA030101F070
:103080000041BDE80081F0BCBDE8004181EA0301D8
:1030900000F0B0B9F0BCBDE8004170B500F05CF9DB
:1030A000097EFC3E00F007B881EA03014FF0000002
:1030B00001F00041704781EA030100F09BB9F0BCC8
:1030C000BDE800414FF0000021497047FFFDFBF9CA
:1030D000F7F5F4F2F0EEEDEBE9E8E6E4E3E1E0DE4B
:1030E000DDDBDAD8D7D5D4D3D1D0CFCDCCCBCAC8BD
:1030F000C7C6C5C4C2C1C0BFBEBDBCBBBAB9B8B7E4
:10310000B6B5B4B3B2B1B0AFAEADACABAAA9A8A8D6
:10311000A7A6A5A4A3A3A2A1A09F9F9E9D9C9C9BA4
:103120009A9999989797969595949393929191904F
:103130008F8F8E8E8D8C8C8B8B8A898988888787E0
:103140008685858484838382828181800000FF0755
:103150000000F87F4FEA1153A3F58063D3F11E03FB
:10316000A8BFD3F1200C08DB4FF0004242EAC12295
:1031700052EA505232FA03F0704709420BD4102B36
:10318000C4BF0020704703F5787CBCF1FF3F05D039
:103190004FF0FF3070474FF00000704770B500F0FF
:1031A000DBF800BF4992248000207047F0E710F060
:1031B000004248BF4042B0FA80F310FA03F10AD04F
:1031C000C3F11D0303F580634FEA415002EB035244
:1031D00002EBD12170474FF000007047B0FA80F346
:1031E00010FA03F10AD0C3F11D0303F580634FEA1F
:1031F00041504FEA035202EBD12170474FF00000DB
:1032000070470000DFF848C170B51CEA111E1EBFF0
:103210001CEA13159EEA0C0F95EA0C0F00F06F8064
:1032200081EA030423EA4C134EEAD47E21EA4C11CE
:1032300041F4801143F48013AE44A1FB024CA0FB87
:103240000365AEF17F7E361955EB0C05A1FB034CEF
:103250004CF10003A0FB021C16EB0C06654153F178
:103260000003094218BF46F0010613F4007F0BD19A
:103270004FEA03314FEA0530340341EA155140EA81
:1032800016506FF003020AE04FEAC3214FEAC5204F
:10329000F40241EA555140EA56506FF0020202EB47
:1032A0002E4201EB025585EACE710AD05FEA440C4A
:1032B00018BF24F0004450F1000041F1000120EA61
:1032C000D47040F2FE7C624500D270BDA84214BFAB
:1032D0004FF080444FF04044002E08BF0024BEF160
:1032E000806FA8BFA1F1C041BDE8704080F282802C
:1032F0004FF0000001F1C04101F0004170479EEA2B
:103300000C0F0CEA131518BF95EA0C0F06D04FF0FE
:10331000000081EA030E0EF0004170BD00F01CF8C1
:103320008900013E00F007B800F009B84FEA430CED
:103330005FEA5C5C08D081EA030100F05BB84FEA09
:10334000410C5FEA5C5CF6D14FF000000149704728
:103350000000FF070000F87F0EF1020E2EF0030EB2
:103360005EF8046B364205D4012A43EB030515F5DC
:10337000001F12D8012841EB010C1CF5001F0CD8CE
:103380000ED14FEAD17C15F5001F0CEB4C0C0CF163
:10339000020C08BF4CEBD37C04E04FF0080C01E0BA
:1033A0004FEAD37C0CEB4C0526FA05F606F007062F
:1033B000B6F1040C06D20EEB860CBDE870404CF062
:1033C000010C6047DFE80CF0090B02024FF00041EE
:1033D0004FF00000A1F5002170BD194610460128EC
:1033E00051EB010418BFD4F5001484BF002001F094
:1033F000004170BD0808A0F500114FEA3101704787
:1034000010B591EA030F48BF83F000433FF5AAAC23
:10341000841A71EB030C07D212198CF0004C43EBA9
:103420000C03001B61EB0C01DFF8A4E14FEA11541F
:10343000A4EB135C1EEA430F18BF9EEA445F00F042
:10344000B08023EA6E03524221EA0451C3EB6E03BB
:1034500038BF5B1EDCF1200E25D322FA0CFE10EBE8
:103460000E0043FA0CFE41EB0E01CCF1200E03FAE4
:103470000EFE10EB0E0051F10001CCF1200E29D40C
:1034800012FA0EF201EB0451BDE8104058BF70472C
:10349000401C1CBFB2F1004F704700280CBF491CF4
:1034A00020F00100704712EB020E43EB030218BF3D
:1034B0004FF0010E4EEA4202ACF1200CDCF11E0E80
:1034C00054D943FA0CFE10EB0E0051F1FF31CCF150
:1034D0001E0ED5D50EF1010E12FA0EFE404141EB43
:1034E000010101EB445C5FEA5C5C10D910EBDE701B
:1034F00001EB045138BFBEF1004FBDE8104018BFCA
:10350000704700280CBF491C20F00100704730D2E2
:103510004FEAD42C11F5001124F400641BD0B1FA49
:1035200081F20B3AA41AA41ED2F12003914030FA82
:1035300003F31943904001EBCC71002C01EB0451D3
:10354000BDE81040A8BF704701F1C0414FF0000036
:1035500001F000417047B0FA80F310FA03F100D196
:1035600010BDE41A173C4805C90AE4E701EB045111
:1035700010BD491001EB0451BDE810404FEA300086
:1035800002E04FF0000170474A0008BF0042F8D047
:10359000B2F5001F28BF704701F000414FF0000056
:1035A00070479EEA445F07D011EA5E0FBDE8104005
:1035B00004BF002100207047BDE8104070B5FFF740
:1035C000CBFE00BF40DFF63E83F00041104670475F
:1035D0000000E0FF0000000000000000006063C089
:1035E00000000000006063C000000000006063C0D5
:1035F00000000000006063C000000000006063C0C5
:1036000000000000006063C000000000006063C0B4
:1036100000000000006063C000000000006063C0A4
:1036200000000000006063C00000000000C062C035
:103630000000000000C062C00000000000C062C0C6
:103640000000000000C062C00000000000C062C0B6
:103650000000000000C062C00000000000C062C0A6
:103660000000000000C062C00000000000C062C096
:103670000000000000C062C0417574196F240F4043
:103680002EBAACDA271210404032C4C178C61040BE
:10369000661330AC68461140E029CEF6B9FA114005
:1036A0000101CEFEA97A12408021D82BFB2E1340B7
:1036B0002019E2603C631440C010EC957D971540E2
:1036C0006008F6CABECB164020AEA036E07D0B37B0
:1036D000A017083660F0AF3660F0AF36403D2E36AA
:1036E000C0AFD235000D993620A5633680A331379F
:1036F0004061223760DE353640466B36A032BF3639
:10370000A032BF36A00ECB35E0625436A044393724
:10371000A00ECB35809AF436001F1337E050DA350F
:1037200040466B36809AF43680A33137807F3D3631
:103730000016D636A03BFC36C0C14C36809AF43613
:1037400060DE353680A33137809AF4368091B73603
:1037500060022A3700FB1E3660F0AF36A0443937CE
:10376000209C2636000D993660D5F835000D993627
:10377000C0AFD2354034F135C0CA893640466B36C9
:10378000C0B80F36807F3D36A044393760022A37F3
:10379000C0C14C36010202030405060708090A0BE2
:1037A0000C0D0E0F101000000000000000000102C0
:1037B00003040607080900000000010203040000DA
:1037C000E0370008000000206C000000280100081D
:1037D0004C3800086C0000208C09000044010008EF
:1037E00000000000000000000000000000000000D9
:1037F00001000000000001010000000000000000C6
:1038000000000000000000000000000000000000B8
:1038100000000000000000000000000000000000A8
:10382000400ECF1914060702010001000400000039
:103830002C0100002C010000060000000100000027
:0C384000100000000000000000127A00E0
:04000005080000ED02
:00000001FF
